:020000040800F2
:1000000000280020911700080116000807160008B4
:100010000D1600081316000819160008000000004D
:100020000000000000000000000000001F16000893
:100030002B160008000000003716000843160008C1
:10004000D9170008D9170008D9170008D9170008D0
:10005000D9170008D9170008D9170008D9170008C0
:10006000D9170008D9170008D9170008D9170008B0
:10007000D9170008D9170008D9170008D9170008A0
:10008000D9170008D9170008D9170008D917000890
:10009000D9170008D9170008D9170008D917000880
:1000A000D9170008D9170008D9170008D917000870
:1000B00051160008D917000800000000D9170008E1
:1000C000D91700080000000000000000D917000840
:1000D00000000000D9170008D91700080000000030
:1000E000D9170008D9170008D91700080000000028
:1000F0000000000000000000000000000000000000
:0C01000000000000000000005FF808F1A3
:10010C0010B5054C237833B9044B13B10448AFF345
:10011C0000800123237010BD280000200000000087
:10012C00282E000808B5034B1BB103490348AFF355
:10013C00008008BD000000002C000020282E0008C4
:10014C0080B584B000AF78607B68BD4A82FB031237
:10015C009210DB17D31AFB607A68B94B83FB02133E
:10016C009910D317C91A0B469B000B445B00D31A8A
:10017C00BB60FB68002B14D100220121B14801F0B7
:10018C002AFE00220221AF4801F025FE00220421A4
:10019C00AC4801F020FE00220821AA4801F01BFE09
:1001AC00D6E0FB68012B14D101220121A54801F0F6
:1001BC0012FE00220221A34801F00DFE00220421B0
:1001CC00A04801F008FE002208219E4801F003FE21
:1001DC00BEE0FB68022B14D100220121994801F0EA
:1001EC00FAFD01220221974801F0F5FD00220421BD
:1001FC00944801F0F0FD00220821924801F0EBFD3B
:10020C00A6E0FB68032B14D1012201218D4801F0DB
:10021C00E2FD012202218B4801F0DDFD00220421C8
:10022C00884801F0D8FD00220821864801F0D3FD52
:10023C008EE0FB68042B14D100220121814801F0CF
:10024C00CAFD002202217F4801F0C5FD01220421D4
:10025C007C4801F0C0FD002208217A4801F0BBFD6A
:10026C0076E0FB68052B14D101220121754801F0C1
:10027C00B2FD00220221734801F0ADFD01220421E0
:10028C00704801F0A8FD002208216E4801F0A3FD82
:10029C005EE0FB68062B14D100220121694801F0B5
:1002AC009AFD01220221674801F095FD01220421EB
:1002BC00644801F090FD00220821624801F08BFD9A
:1002CC0046E0FB68072B14D1012201215D4801F0A7
:1002DC0082FD012202215B4801F07DFD01220421F7
:1002EC00584801F078FD00220821564801F073FDB2
:1002FC002EE0FB68082B14D100220121514801F09B
:10030C006AFD002202214F4801F065FD0022042104
:10031C004C4801F060FD012208214A4801F05BFDC8
:10032C0016E0FB68092B13D101220121454801F08D
:10033C0052FD00220221434801F04DFD0022042110
:10034C00404801F048FD012208213E4801F043FDE0
:10035C00BB68002B14D1002210213A4801F03BFD60
:10036C0000222021374801F036FD0022402135487B
:10037C0001F031FD00228021324801F02CFDDAE041
:10038C00BB68012B14D1012210212E4801F023FD52
:10039C00002220212B4801F01EFD0022402129487B
:1003AC0001F019FD00228021264801F014FDC2E065
:1003BC00BB68022B14D100221021224801F00BFD46
:1003CC00012220211F4801F006FD002240211D487A
:1003DC0001F001FD002280211A4801F0FCFCAAE08A
:1003EC00BB68032B14D101221021164801F0F3FC39
:1003FC0001222021134801F0EEFC0022402111487B
:10040C0001F0E9FC002280210E4801F0E4FC92E0AE
:10041C00BB68042B18D1002210210A4801F0DBFC28
:10042C0000222021074801F0D6FC0122402105487A
:10043C0001F0D1FC00228021024801F0CCFC7AE0D2
:10044C0067666666000C0140BB68052B14D101225F
:10045C0010213B4801F0BFFC00222021384801F05C
:10046C00BAFC01224021364801F0B5FC0022802163
:10047C00334801F0B0FC5EE0BB68062B14D10022BF
:10048C0010212F4801F0A7FC012220212C4801F05B
:10049C00A2FC012240212A4801F09DFC002280216F
:1004AC00274801F098FC46E0BB68072B14D10122C9
:1004BC001021234801F08FFC01222021204801F05B
:1004CC008AFC012240211E4801F085FC002280217B
:1004DC001B4801F080FC2EE0BB68082B14D10022D5
:1004EC001021174801F077FC00222021144801F05C
:1004FC0072FC00224021124801F06DFC0122802187
:10050C000F4801F068FC16E0BB68092B13D10122DF
:10051C0010210B4801F05FFC00222021084801F05B
:10052C005AFC00224021064801F055FC0122802192
:10053C00034801F050FC00BF1037BD4680BD00BF22
:10054C00000C014080B584B000AF78607B68BF4A76
:10055C0082FB03129210DB17D31AFB607A68BB4B39
:10056C0083FB02139910D317C91A0B469B000B443B
:10057C005B00D31ABB60FB68002B18D100224FF430
:10058C008071B34801F027FC00224FF40071B04891
:10059C0001F021FC00224FF48061AD4801F01BFCFE
:1005AC0000224FF40061AA4801F015FCFAE0FB6848
:1005BC00012B18D101224FF48071A54801F00BFCDE
:1005CC0000224FF40071A24801F005FC00224FF408
:1005DC0080619F4801F0FFFB00224FF400619C48B2
:1005EC0001F0F9FBDEE0FB68022B18D100224FF47E
:1005FC008071974801F0EFFB01224FF40071944891
:10060C0001F0E9FB00224FF48061914801F0E3FB1B
:10061C0000224FF400618E4801F0DDFBC2E0FB6864
:10062C00032B18D101224FF48071894801F0D3FBC0
:10063C0001224FF40071864801F0CDFB00224FF4EB
:10064C008061834801F0C7FB00224FF400618048B1
:10065C0001F0C1FBA6E0FB68042B18D100224FF47B
:10066C0080717B4801F0B7FB00224FF40071784891
:10067C0001F0B1FB01224FF48061754801F0ABFB36
:10068C0000224FF40061724801F0A5FB8AE0FB6880
:10069C00052B18D101224FF480716D4801F09BFBA2
:1006AC0000224FF400716A4801F095FB01224FF4CF
:1006BC008061674801F08FFB00224FF400616448B1
:1006CC0001F089FB6EE0FB68062B18D100224FF479
:1006DC0080715F4801F07FFB01224FF400715C4890
:1006EC0001F079FB01224FF48061594801F073FB52
:1006FC0000224FF40061564801F06DFB52E0FB689C
:10070C00072B18D101224FF48071514801F063FB83
:10071C0001224FF400714E4801F05DFB01224FF4B1
:10072C0080614B4801F057FB00224FF400614848B0
:10073C0001F051FB36E0FB68082B18D100224FF476
:10074C008071434801F047FB00224FF40071404890
:10075C0001F041FB00224FF480613D4801F03BFB6E
:10076C0001224FF400613A4801F035FB1AE0FB68B6
:10077C00092B17D101224FF48071354801F02BFB66
:10078C0000224FF40071324801F025FB00224FF497
:10079C0080612F4801F01FFB01224FF400612C48AF
:1007AC0001F019FBBB68002B18D100224FF48051CB
:1007BC00274801F010FB00224FF40051244801F0AF
:1007CC000AFB00224FF48041214801F004FB002277
:1007DC004FF400411E4801F0FEFAFEE0BB68012B0D
:1007EC0018D101224FF48051194801F0F4FA00227B
:1007FC004FF40051164801F0EEFA00224FF48041FC
:10080C00134801F0E8FA00224FF40041104801F0BF
:10081C00E2FAE2E0BB68022B1CD100224FF48051BB
:10082C000B4801F0D8FA01224FF40051084801F0AE
:10083C00D2FA00224FF48041054801F0CCFA002294
:10084C004FF40041024801F0C6FAC6E067666666DE
:10085C00000C0140BB68032B18D101224FF48051CE
:10086C00604801F0B8FA01224FF400515D4801F0E4
:10087C00B2FA00224FF480415A4801F0ACFA00223F
:10088C004FF40041574801F0A6FAA6E0BB68042BD0
:10089C0018D100224FF48051524801F09CFA0022EA
:1008AC004FF400514F4801F096FA01224FF4804169
:1008BC004C4801F090FA00224FF40041494801F0F5
:1008CC008AFA8AE0BB68052B18D101224FF48051BB
:1008DC00444801F080FA00224FF40051414801F0E5
:1008EC007AFA01224FF480413E4801F074FA00225A
:1008FC004FF400413B4801F06EFA6EE0BB68062BEA
:10090C0018D100224FF48051364801F064FA0122CC
:10091C004FF40051334801F05EFA01224FF480414C
:10092C00304801F058FA00224FF400412D4801F0F4
:10093C0052FA52E0BB68072B18D101224FF48051B8
:10094C00284801F048FA01224FF40051254801F0E3
:10095C0042FA01224FF48041224801F03CFA002275
:10096C004FF400411F4801F036FA36E0BB68082B03
:10097C0018D100224FF480511A4801F02CFA0022B1
:10098C004FF40051174801F026FA00224FF4804131
:10099C00144801F020FA01224FF40041114801F0F3
:1009AC001AFA1AE0BB68092B17D101224FF48051B7
:1009BC000C4801F010FA00224FF40051094801F0E4
:1009CC000AFA00224FF48041064801F004FA012291
:1009DC004FF40041034801F0FEF900BF1037BD464B
:1009EC0080BD00BF000C014080B582B000AF7860C4
:1009FC007B68012B18D101224FF40061364801F0BD
:100A0C00EAF900224FF48051334801F0E4F9002256
:100A1C004FF40051304801F0DEF900224FF48041D0
:100A2C002D4801F0D8F952E07B68022B18D1002236
:100A3C004FF40061284801F0CEF901224FF48051A7
:100A4C00254801F0C8F900224FF40051224801F06A
:100A5C00C2F900224FF480411F4801F0BCF936E086
:100A6C007B68032B18D101224FF400611A4801F066
:100A7C00B2F901224FF48051174801F0ACF9002271
:100A8C004FF40051144801F0A6F900224FF48041B4
:100A9C00114801F0A0F91AE07B68042B17D1002251
:100AAC004FF400610C4801F096F900224FF480518C
:100ABC00094801F090F901224FF40051064801F069
:100ACC008AF900224FF48041034801F084F900BFF9
:100ADC000837BD4680BD00BF0008014090B583B00B
:100AEC0000AF0023FB7187E0FA79FB794749895CF9
:100AFC00474AD154FB79022B1BD0022B24DC002B50
:100B0C0002D0012B0AD01FE0FC798021414801F072
:100B1C004BF903461A463D4B1A5516E0FC794FF437
:100B2C0080713C4801F040F903461A46374B1A5580
:100B3C000BE0FC794FF40071364801F035F90346AF
:100B4C001A46324B1A5500E000BFFB792F4AD25C93
:100B5C00FB792F49CB5C9A424BD1FB792C4AD25C66
:100B6C00FB792D49CB5C9A4214D0FA79FB79284950
:100B7C00895C294AD154FB79274AD35C002B38D1A4
:100B8C00FB79264A0021D154FB79254A642122F8AD
:100B9C0013102EE0FB79224A32F81320013A91B25D
:100BAC001F4A22F81310FB791D4A32F81330002B20
:100BBC001FD1FB79184AD35C002B0CD1FB79184A56
:100BCC00642122F81310FB79144A0121D154FB79CA
:100BDC00144A0121D154FB790F4AD35C012B08D163
:100BEC00FB790F4A642122F81310FB790D4A00217E
:100BFC00D154FB790133FB71FB79022B7FF674AF77
:100C0C0000BF00BF0C37BD4690BD00BF04000020E4
:100C1C0008000020000801400C000020000000200B
:100C2C00100000205000002080B485B000AF0346B7
:100C3C00FB71FB79022B01D900230DE0FB79094AEA
:100C4C00D35CFB73FB79074A0121D154FB7B002B4E
:100C5C000CBF01230023DBB218461437BD4680BC01
:100C6C00704700BF0000002080B485B000AF034681
:100C7C00FB71FB79022B01D9FF230DE0FB79094AAB
:100C8C00D35CFB73FB79074A0021D154FB7B012B0E
:100C9C000CBF01230023DBB218461437BD4680BCC1
:100CAC00704700BF5000002080B500AF00F090FDF1
:100CBC0000F010F800F096F800F048F8044801F045
:100CCC00E9FC00F009F900F01BFB00F0B3FBF8E7BE
:100CDC005400002080B590B000AF07F11803282213
:100CEC000021184602F092F83B1D00221A605A604F
:100CFC009A60DA601A610223BB610123BB62102384
:100D0C00FB6200237B6307F11803184601F094F88B
:100D1C000346002B01D000F0DAF80F237B60002390
:100D2C00BB600023FB6000233B6100237B613B1D08
:100D3C000021184601F002FB0346002B01D000F005
:100D4C00C6F800BF4037BD4680BD000080B586B0F8
:100D5C0000AF07F1080300221A605A609A60DA604B
:100D6C003B4600221A605A601D4B4FF080421A60BD
:100D7C001B4B41F63F725A60194B00229A60184B7C
:100D8C000922DA60164B00221A61154B00229A6177
:100D9C00134801F02FFC0346002B01D000F097F80C
:100DAC004FF48053BB6007F1080319460C4801F05F
:100DBC00C5FD0346002B01D000F089F800233B60F1
:100DCC0000237B603B461946054801F091FF034622
:100DDC00002B01D000F07BF800BF1837BD4680BD5A
:100DEC005400002080B586B000AF07F10803002244
:100DFC001A605A609A60DA60294B9B69284A43F062
:100E0C0004039361264B9B6903F004037B607B68AE
:100E1C00234B9B69224A43F008039361204B9B6947
:100E2C0003F008033B603B6800224FF67E011D482F
:100E3C0000F0D1FF00224FF6FF711B4800F0CBFFF2
:100E4C004FF67E03BB600123FB6000233B61022352
:100E5C007B6107F108031946124800F029FE4FF494
:100E6C006073BB600023FB6001233B6107F1080347
:100E7C0019460C4800F01CFE4FF6FF73BB600123B3
:100E8C00FB6000233B6102237B6107F108031946D9
:100E9C00054800F00DFE00BF1837BD4680BD00BFF1
:100EAC000010024000080140000C014080B582B0E7
:100EBC0000AF78607B681B68B3F1804F01D1FFF7FE
:100ECC000DFE00F01DFC00BF0837BD4680BD80B490
:100EDC0000AF72B600BFFEE780B500AF894B1B6850
:100EEC000E2B00F2F68101A252F823F0350F000808
:100EFC00DF120008DF120008DF120008DF12000802
:100F0C00DF120008DF120008DF120008DF120008F1
:100F1C00DF120008DF120008590F00083510000816
:100F2C002911000805120008774B1E221A60774B16
:100F3C0019221A60734B0B221A604FF47A7000F06E
:100F4C0091FB46F2A81000F0A7FBCBE10122022195
:100F5C006F4800F040FF002204216D4800F03BFF79
:100F6C00002208216A4800F036FF00221021684850
:100F7C0000F031FF00222021654800F02CFF0122F7
:100F8C004021634800F027FF5F4B1B681846FFF7B2
:100F9C00D7F85E4B1B681846FFF7D4FA0120FFF711
:100FAC0023FD5C4B1B68012B0DD14FF47A7000F0C4
:100FBC0059FB554B1B68013B534A1360534B1B6841
:100FCC00013B524A1360544B1B68012B10D14D4B03
:100FDC000C221A604C4B05221A604C4B05221A60ED
:100FEC004FF47A7000F03EFB41F2883000F054FB75
:100FFC000020FFF719FE0346002B00F06C81414BDB
:10100C0014221A60404B14221A60404B00221A60C2
:10101C004FF47A7000F026FB46F2A81000F03CFB6F
:10102C00FA2000F053FB56E101220221384800F06F
:10103C00D2FE00220421364800F0CDFE0022082109
:10104C00334800F0C8FE00221021314800F0C3FEE6
:10105C00012220212E4800F0BEFE002240212C4807
:10106C0000F0B9FE284B1B681846FFF769F8274BB0
:10107C001B681846FFF766FA0120FFF7B5FC254BF5
:10108C001B68012B0DD14FF47A7000F0EBFA1E4B5C
:10109C001B68013B1C4A13601C4B1B68013B1B4A21
:1010AC0013601D4B1B68012B10D1164B0D221A60BF
:1010BC00154B19221A60154B1E221A604FF47A70C8
:1010CC0000F0D0FA46F2A81000F0E6FA0020FFF784
:1010DC00ABFD0346002B00F000810A4B14221A6072
:1010EC00094B14221A60094B00221A604FF47A70D3
:1010FC0000F0B8FA46F2A81000F0CEFAFA2000F090
:10110C00E5FAEAE04C0000204400002048000020F2
:10111C0000080140A8000020AC00002000220221A1
:10112C00714800F058FE002204216F4800F053FE75
:10113C00012208216C4800F04EFE012210216A4861
:10114C0000F049FE00222021674800F044FE0022F6
:10115C004021654800F03FFE644B1B681846FEF7C3
:10116C00EFFF634B1B681846FFF7ECF90120FFF704
:10117C003BFC604B1B68012B0DD14FF47A7000F0D7
:10118C0071FA5A4B1B68013B584A1360584B1B6849
:10119C00013B574A1360584B1B68012B10D1574B1E
:1011AC000E221A60514B05221A60514B05221A600F
:1011BC004FF47A7000F056FA41F2883000F06CFA75
:1011CC000020FFF731FD0346002B00F088804B4BCD
:1011DC0014221A60454B14221A60454B00221A60E7
:1011EC004FF47A7000F03EFA46F2A81000F054FA70
:1011FC00FA2000F06BFA72E0002202213A4800F06B
:10120C00EAFD01220421384800F0E5FD0022082106
:10121C00354800F0E0FD01221021334800F0DBFDE1
:10122C0000222021304800F0D6FD002240212E481B
:10123C0000F0D1FD2D4B1B681846FEF781FF2C4B9F
:10124C001B681846FFF77EF90120FFF7CDFB294BF1
:10125C001B68012B0DD14FF47A7000F003FA234B6D
:10126C001B68013B214A1360214B1B68013B204A40
:10127C001360214B1B68012B10D1204B0B221A60E1
:10128C001A4B1E221A601A4B19221A604FF47A70EC
:10129C0000F0E8F946F2A81000F0FEF90020FFF784
:1012AC00C3FC0346002B1CD0144B14221A600F4BAA
:1012BC0014221A600E4B00221A604FF47A7000F060
:1012CC00D1F946F2A81000F0E7F9FA2000F0FEF987
:1012DC0007E000BF06E000BF04E000BF02E000BF73
:1012EC0000E000BF00BF80BD0008014044000020AA
:1012FC0048000020A8000020AC0000204C0000207A
:10130C0080B500AF444B1B68142B40F08280434BDC
:10131C001B681846FEF714FF414B1B681846FFF775
:10132C0011F90220FFF760FB3E4B1B68012B1ED10D
:10133C0002213D4800F067FD10213B4800F063FDA1
:10134C0000220421384800F046FD002208213648CE
:10135C0000F041FD00222021334800F03CFD00222A
:10136C004021314800F037FDFA2000F0AFF92F4B47
:10137C001B68012B08D1294B1B68013B274A1360C2
:10138C004FF47A7000F06EF90020FFF74DFC034625
:10139C00002B03D1264B1B68012B13D11E4B1E2295
:1013AC001A601E4B14221A601D4B00221A604FF457
:1013BC007A7000F057F946F2A81000F06DF9FA2097
:1013CC0000F084F90120FFF72FFC0346002B05D118
:1013DC000120FFF749FC0346002B04D0104B1B687F
:1013EC0001330F4A13600220FFF71EFC0346002B4B
:1013FC000FD00B4B1B68094A1360094B1B684FF449
:10140C007A7202FB03F3184600F046F9044B0022F3
:10141C001A6000BF80BD00BF4C00002044000020BB
:10142C0048000020B000002000080140A800002067
:10143C00AC00002080B500AF444B1B681E2B40F065
:10144C008280434B1B681846FEF77AFE414B1B68A3
:10145C001846FFF777F80320FFF7C6FA3E4B1B68D8
:10146C00012B1ED104213D4800F0CDFC20213B482E
:10147C0000F0C9FC00220221384800F0ACFC00222C
:10148C000821364800F0A7FC00221021334800F058
:10149C00A2FC00224021314800F09DFCFA2000F013
:1014AC0015F92F4B1B68012B08D1294B1B68013BED
:1014BC00274A13604FF47A7000F0D4F80020FFF73D
:1014CC00B3FB0346002B03D1264B1B68012B13D116
:1014DC001E4B28221A601E4B14221A601D4B002230
:1014EC001A604FF47A7000F0BDF846F2A81000F0C4
:1014FC00D3F8FA2000F0EAF80120FFF795FB034639
:10150C00002B05D10120FFF7AFFB0346002B04D0C5
:10151C00104B1B6801330F4A13600220FFF784FB4A
:10152C000346002B0FD00B4B1B68094A1360094B69
:10153C001B684FF47A7202FB03F3184600F0ACF808
:10154C00044B00221A6000BF80BD00BF4C0000207D
:10155C004400002048000020B0000020000801409A
:10156C00A8000020AC00002080B483B000AF0E4B6C
:10157C009B690D4A43F0010393610B4B9B6903F08C
:10158C0001037B607B68084BDB69074A43F080539F
:10159C00D361054BDB6903F080533B603B6800BFB4
:1015AC000C37BD4680BC70470010024080B584B03B
:1015BC0000AF78607B681B68B3F1804F13D10C4B84
:1015CC00DB690B4A43F00103D361094BDB6903F080
:1015DC000103FB60FB68002200211C2000F031FAA3
:1015EC001C2000F04AFA00BF1037BD4680BD00BF7A
:1015FC000010024080B400AFFEE780B400AFFEE7FD
:10160C0080B400AFFEE780B400AFFEE780B400AF5B
:10161C00FEE780B400AF00BFBD4680BC704780B40D
:10162C0000AF00BFBD4680BC704780B400AF00BFA8
:10163C00BD4680BC704780B500AF00F00FF900BF0D
:10164C0080BD000080B500AF024801F06FF800BF0C
:10165C0080BD00BF5400002080B400AF00BFBD4669
:10166C0080BC704780B483B000AF7860074B1B68B8
:10167C007A6892FBF3F3064A1360064B00221A6059
:10168C0000BF0C37BD4680BC704700BF1C0000205B
:10169C009C000020A800002080B483B000AF7860CC
:1016AC00074B1B687A6892FBF3F3064A1360064BF0
:1016BC0000221A6000BF0C37BD4680BC704700BFCB
:1016CC001C000020A0000020AC00002080B483B0DF
:1016DC0000AF7860074B1B687A6892FBF3F3064AFD
:1016EC001360064B00221A6000BF0C37BD4680BC4D
:1016FC00704700BF1C000020A4000020B000002098
:10170C0080B400AF194B1B68002B0BDD174B1B680B
:10171C00013B164A1360154B1B68002B02D1144B6E
:10172C0001221A60134B1B68002B0BDD114B1B683D
:10173C00013B104A13600F4B1B68002B02D10E4B60
:10174C0001221A600D4B1B68002B0BDD0B4B1B6829
:10175C00013B0A4A1360094B1B68002B02D1084B52
:10176C0001221A6000BFBD4680BC70479C0000205F
:10177C00A8000020A0000020AC000020A400002045
:10178C00B0000020FFF768FF0B480C490C4A0023FF
:10179C0002E0D458C4500433C4188C42F9D3094A1B
:1017AC00094C002301E013600432A242FBD301F088
:1017BC0009FBFFF779FA7047000000202800002091
:1017CC006C2E000828000020B8000020FEE7000066
:1017DC0080B500AF084B1B68074A43F01003136039
:1017EC00032000F023F90F2000F008F8FFF7BCFEEF
:1017FC000023184680BD00BF0020024080B582B097
:10180C0000AF7860124B1A68124B1B7819464FF4D4
:10181C007A73B3FBF1F3B2FBF3F3184600F03BF928
:10182C000346002B01D001230EE07B680F2B0AD856
:10183C00002279684FF0FF3000F003F9064A7B680C
:10184C001360002300E0012318460837BD4680BD15
:10185C0018000020240000202000002080B400AFDD
:10186C00054B1B781A46054B1B681344034A13603F
:10187C0000BFBD4680BC704724000020B40000208F
:10188C0080B400AF024B1B681846BD4680BC704745
:10189C00B400002080B485B000AF78607B6803F0A2
:1018AC000703FB600C4BDB68BB60BA684FF6FF03A9
:1018BC001340BB60FB681A02BB68134343F0BF6361
:1018CC0043F40033BB60044ABB68D36000BF1437D9
:1018DC00BD4680BC704700BF00ED00E080B400AF97
:1018EC00044BDB681B0A03F007031846BD4680BC9B
:1018FC00704700BF00ED00E080B483B000AF03463A
:10190C00FB7197F90730002B0BDBFB7903F01F02FF
:10191C00064997F907305B09012000FA02F241F8F9
:10192C00232000BF0C37BD4680BC704700E100E0AF
:10193C0080B483B000AF03463960FB7197F9073070
:10194C00002B0ADB3B68DAB20C4997F9073012011D
:10195C00D2B20B4483F800230AE03B68DAB20849A0
:10196C00FB7903F00F03043B1201D2B20B441A763D
:10197C0000BF0C37BD4680BC704700BF00E100E0E3
:10198C0000ED00E080B489B000AFF860B9607A6017
:10199C00FB6803F00703FB61FB69C3F10703042B2E
:1019AC0028BF0423BB61FB690433062B02D9FB69F6
:1019BC00033B00E000237B614FF0FF32BB6902FA6E
:1019CC0003F3DA43BB681A407B699A404FF0FF314E
:1019DC007B6901FA03F3D9437B680B401343184628
:1019EC002437BD4680BC704780B582B000AF7860AC
:1019FC007B68013BB3F1807F01D301230FE00A4ADE
:101A0C007B68013B53600F214FF0FF30FFF790FFD5
:101A1C00054B00229A60044B07221A6000231846DB
:101A2C000837BD4680BD00BF10E000E080B582B035
:101A3C0000AF78607868FFF72DFF00BF0837BD4610
:101A4C0080BD80B586B000AF0346B9607A60FB7389
:101A5C0000237B61FFF742FF78617A68B968786987
:101A6C00FFF790FF024697F90F3011461846FFF723
:101A7C005FFF00BF1837BD4680BD80B582B000AF98
:101A8C000346FB7197F907301846FFF735FF00BF87
:101A9C000837BD4680BD80B582B000AF78607868ED
:101AAC00FFF7A2FF034618460837BD4680BD00006D
:101ABC0080B48BB000AF7860396000237B62002368
:101ACC003B6261E101227B6A02FA03F3FB613B6832
:101ADC001B68FA691340BB61BA69FB699A4240F012
:101AEC0050813B685B68974A93425ED0954A93421B
:101AFC0075D8954A934258D0934A93426FD8934ADB
:101B0C00934252D0914A934269D8914A93424CD015
:101B1C008F4A934263D88F4A934246D08D4A934260
:101B2C005DD8122B2AD8122B59D801A252F823F0C7
:101B3C00B71B0008911B0008A31B0008E51B00083D
:101B4C00EB1B0008EB1B0008EB1B0008EB1B000851
:101B5C00EB1B0008EB1B0008EB1B0008EB1B000841
:101B6C00EB1B0008EB1B0008EB1B0008EB1B000831
:101B7C00EB1B0008991B0008AD1B0008764A93422A
:101B8C0013D02CE03B68DB683B6229E03B68DB68E8
:101B9C0004333B6224E03B68DB6808333B621FE0A4
:101BAC003B68DB680C333B621AE03B689B68002B9C
:101BBC0002D104233B6213E03B689B68012B05D1E7
:101BCC0008233B627B68FA691A6109E008233B62CF
:101BDC007B68FA695A6103E000233B6200E000BFB6
:101BEC00BB69FF2B01D87B6801E07B6804337B6108
:101BFC00BB69FF2B02D87B6A9B0002E07B6A083B27
:101C0C009B003B617B691A680F213B6901FA03F366
:101C1C00DB431A40396A3B6901FA03F31A437B69C7
:101C2C001A603B685B6803F08053002B00F0A980BE
:101C3C004A4B9B69494A43F001039361474B9B69AB
:101C4C0003F00103BB60BB68454A7B6A9B08023307
:101C5C0052F82330FB607B6A03F003039B000F22D6
:101C6C0002FA03F3DB43FA681340FB607B683D4ADE
:101C7C0093420DD07B683C4A934207D07B683B4A29
:101C8C00934201D1022304E0032302E0012300E08C
:101C9C0000237A6A02F0030292009340FA6813431D
:101CAC00FB602F497B6A9B080233FA6841F82320BA
:101CBC003B685B6803F48013002B06D02C4B9A68AE
:101CCC002B49BB6913438B6006E0294B9A68BB69AF
:101CDC00DB43274913408B603B685B6803F40013BC
:101CEC00002B06D0224BDA682149BB691343CB6029
:101CFC0006E01F4BDA68BB69DB431D491340CB6020
:101D0C003B685B6803F40033002B06D0184B5A6811
:101D1C001749BB6913434B6006E0154B5A68BB6906
:101D2C00DB43134913404B603B685B6803F480331F
:101D3C00002B1FD00E4B1A680D49BB6913430B6067
:101D4C001FE000BF00003210000031100000221014
:101D5C0000002110000012100000111000100240B1
:101D6C000000014000080140000C0140001001403F
:101D7C00000401400B4B1A68BB69DB430949134053
:101D8C000B607B6A01337B623B681A687B6A22FAC0
:101D9C0003F3002B7FF496AE00BF00BF2C37BD467B
:101DAC0080BC70470004014080B485B000AF7860FF
:101DBC000B467B807B689A687B881340002B02D093
:101DCC000123FB7301E00023FB73FB7B18461437E4
:101DDC00BD4680BC704780B483B000AF78600B46C2
:101DEC007B8013467B707B78002B03D07A887B68D2
:101DFC001A6103E07B881A047B681A6100BF0C37F8
:101E0C00BD4680BC704780B485B000AF78600B468F
:101E1C007B807B68DB68FB607A88FB6813401A0464
:101E2C00FB68D9437B880B401A437B681A6100BF5F
:101E3C001437BD4680BC704780B586B000AF786063
:101E4C007B68002B01D1012372E27B681B6803F0D5
:101E5C000103002B00F08780924B5B6803F00C03AE
:101E6C00042B0CD08F4B5B6803F00C03082B12D1A6
:101E7C008C4B5B6803F48033B3F5803F0BD1894BFB
:101E8C001B6803F40033002B6CD07B685B68002B61
:101E9C0068D101234CE27B685B68B3F5803F06D1C7
:101EAC00804B1B687F4A43F4803313602EE07B68C1
:101EBC005B68002B0CD17B4B1B687A4A23F4803374
:101ECC001360784B1B68774A23F4802313601DE062
:101EDC007B685B68B3F5A02F0CD1724B1B68714A01
:101EEC0043F4802313606F4B1B686E4A43F48033BA
:101EFC0013600BE06B4B1B686A4A23F4803313604E
:101F0C00684B1B68674A23F4802313607B685B680B
:101F1C00002B13D0FFF7B4FC386108E0FFF7B0FCDE
:101F2C0002463B69D31A642B01D9032300E25D4BB3
:101F3C001B6803F40033002BF0D014E0FFF7A0FC77
:101F4C00386108E0FFF79CFC02463B69D31A642B0E
:101F5C0001D90323ECE1534B1B6803F40033002B32
:101F6C00F0D100E000BF7B681B6803F00203002B7C
:101F7C0063D04C4B5B6803F00C03002B0BD0494B2C
:101F8C005B6803F00C03082B1CD1464B5B6803F415
:101F9C008033002B16D1434B1B6803F00203002B3C
:101FAC0005D07B681B69012B01D00123C0E13D4B9F
:101FBC001B6823F0F8027B685B69DB00394913432B
:101FCC000B603AE07B681B69002B20D0364B01225A
:101FDC001A60FFF755FC386108E0FFF751FC024628
:101FEC003B69D31A022B01D90323A1E12D4B1B68AA
:101FFC0003F00203002BF0D02A4B1B6823F0F802ED
:10200C007B685B69DB00274913430B6015E0264BAB
:10201C0000221A60FFF734FC386108E0FFF730FC4F
:10202C0002463B69D31A022B01D9032380E11D4BD5
:10203C001B6803F00203002BF0D17B681B6803F0D4
:10204C000803002B3AD07B689B69002B19D0174BE7
:10205C0001221A60FFF714FC386108E0FFF710FC4E
:10206C0002463B69D31A022B01D9032360E10D4BC5
:10207C005B6A03F00203002BF0D0012000F09CFA05
:10208C001CE00A4B00221A60FFF7FAFB38610FE0E4
:10209C00FFF7F6FB02463B69D31A022B08D9032340
:1020AC0046E100BF00100240000042428004424260
:1020BC00924B5B6A03F00203002BE9D17B681B682F
:1020CC0003F00403002B00F0A6800023FB758B4B60
:1020DC00DB6903F08053002B0DD1884BDB69874AF9
:1020EC0043F08053D361854BDB6903F08053BB60B5
:1020FC00BB680123FB75824B1B6803F48073002BB8
:10210C0018D17F4B1B687E4A43F480731360FFF732
:10211C00B7FB386108E0FFF7B3FB02463B69D31A03
:10212C00642B01D9032303E1754B1B6803F4807303
:10213C00002BF0D07B68DB68012B06D16F4B1B6A40
:10214C006E4A43F0010313622DE07B68DB68002BC1
:10215C000CD16A4B1B6A694A23F001031362674B6B
:10216C001B6A664A23F0040313621CE07B68DB687D
:10217C00052B0CD1614B1B6A604A43F004031362BC
:10218C005E4B1B6A5D4A43F0010313620BE05B4B31
:10219C001B6A5A4A23F001031362584B1B6A574AB5
:1021AC0023F0040313627B68DB68002B15D0FFF768
:1021BC0067FB38610AE0FFF763FB02463B69D31A01
:1021CC0041F28832934201D90323B1E04B4B1B6A95
:1021DC0003F00203002BEED014E0FFF751FB386143
:1021EC000AE0FFF74DFB02463B69D31A41F28832F5
:1021FC00934201D903239BE0404B1B6A03F002037B
:10220C00002BEED1FB7D012B05D13C4BDB693B4A0E
:10221C0023F08053D3617B68DB69002B00F087804F
:10222C00364B5B6803F00C03082B61D07B68DB69D1
:10223C00022B46D1334B00221A60FFF721FB386189
:10224C0008E0FFF71DFB02463B69D31A022B01D9AC
:10225C0003236DE0294B1B6803F00073002BF0D1B6
:10226C007B681B6AB3F5803F08D1244B5B6823F471
:10227C0000327B689B68214913434B601F4B5B68A2
:10228C0023F474127B68196A7B685B6A0B431B49E5
:10229C0013434B601B4B01221A60FFF7F1FA3861B4
:1022AC0008E0FFF7EDFA02463B69D31A022B01D97D
:1022BC0003233DE0114B1B6803F00073002BF0D09F
:1022CC0035E0104B00221A60FFF7DAFA386108E0AB
:1022DC00FFF7D6FA02463B69D31A022B01D9032326
:1022EC0026E0064B1B6803F00073002BF0D11EE0B8
:1022FC007B68DB69012B07D1012319E00010024038
:10230C0000700040600042420B4B5B68FB60FB6856
:10231C0003F480327B681B6A9A4206D1FB6803F493
:10232C0070127B685B6A9A4201D0012300E00023A3
:10233C0018461837BD4680BD0010024080B584B0E9
:10234C0000AF786039607B68002B01D10123D0E0AD
:10235C006A4B1B6803F007033A689A4210D9674B23
:10236C001B6823F0070265493B6813430B60634B02
:10237C001B6803F007033A689A4201D00123B8E0C6
:10238C007B681B6803F00203002B20D07B681B6862
:10239C0003F00403002B05D0594B5B68584A43F4F7
:1023AC00E06353607B681B6803F00803002B05D0C7
:1023BC00534B5B68524A43F460535360504B5B6819
:1023CC0023F0F0027B689B684D4913434B607B689C
:1023DC001B6803F00103002B40D07B685B68012B6A
:1023EC0007D1474B1B6803F40033002B15D1012395
:1023FC007FE07B685B68022B07D1414B1B6803F0C5
:10240C000073002B09D1012373E03D4B1B6803F0D3
:10241C000203002B01D101236BE0394B5B6823F0E5
:10242C0003027B685B68364913434B60FFF728FA5D
:10243C00F8600AE0FFF724FA0246FB68D31A41F26F
:10244C008832934201D9032353E02D4B5B6803F090
:10245C000C027B685B689B009A42EBD1274B1B6894
:10246C0003F007033A689A4210D2244B1B6823F0FE
:10247C00070222493B6813430B60204B1B6803F097
:10248C0007033A689A4201D0012332E07B681B684B
:10249C0003F00403002B08D0194B5B6823F4E062B3
:1024AC007B68DB68164913434B607B681B6803F041
:1024BC000803002B09D0124B5B6823F460527B6835
:1024CC001B69DB000E4913434B6000F021F80246F8
:1024DC000B4B5B681B0903F00F030A49CB5C22FA18
:1024EC0003F3094A1360094B1B681846FFF786F97A
:1024FC00002318461037BD4680BD00BF00200240A7
:10250C0000100240402E000818000020200000207F
:10251C0080B487B000AF0023FB600023BB600023B6
:10252C007B6100237B6000233B611E4B5B68FB607F
:10253C00FB6803F00C03042B02D0082B03D027E01C
:10254C00194B3B6127E0FB689B0C03F00F03174A08
:10255C00D35C7B60FB6803F48033002B10D0114BF1
:10256C005B685B0C03F00103114AD35CBB607B68B6
:10257C000D4A03FB02F2BB68B2FBF3F37B6104E090
:10258C007B680C4A02FB03F37B617B693B6102E0D5
:10259C00054B3B6100BF3B6918461C37BD4680BCF0
:1025AC00704700BF0010024000127A00502E000845
:1025BC00602E000800093D0080B485B000AF786043
:1025CC000A4B1B680A4AA2FB03235B0A7A6802FBCC
:1025DC0003F3FB6000BFFB685A1EFA60002BF9D1B5
:1025EC0000BF00BF1437BD4680BC704718000020E8
:1025FC00D34D621080B582B000AF78607B68002B41
:10260C0001D1012341E07B6893F83D30DBB2002B14
:10261C0006D17B68002283F83C207868FEF7C6FF61
:10262C007B68022283F83D207B681A687B68043340
:10263C001946104600F06EFA7B68012283F846209A
:10264C007B68012283F83E207B68012283F83F20BF
:10265C007B68012283F840207B68012283F84120AB
:10266C007B68012283F842207B68012283F8432097
:10267C007B68012283F844207B68012283F8452083
:10268C007B68012283F83D20002318460837BD469D
:10269C0080BD000080B485B000AF78607B6893F893
:1026AC003D30DBB2012B01D0012335E07B680222E7
:1026BC0083F83D207B681B68DA687B681B6842F0F6
:1026CC000102DA607B681B68164A934209D07B686A
:1026DC001B68B3F1804F04D07B681B68124A93428D
:1026EC0011D17B681B689B6803F00703FB60FB68D8
:1026FC00062B10D07B681B681A687B681B6842F03D
:10270C0001021A6007E07B681B681A687B681B680B
:10271C0042F001021A60002318461437BD4680BCF3
:10272C00704700BF002C01400004004080B582B00F
:10273C0000AF78607B681B681B6903F00203022BF7
:10274C0022D17B681B68DB6803F00203022B1BD1D0
:10275C007B681B686FF002021A617B6801221A7792
:10276C007B681B689B6903F00303002B03D078681C
:10277C0000F0B4F905E0786800F0A7F9786800F08B
:10278C00B6F97B6800221A777B681B681B6903F01B
:10279C000403042B22D17B681B68DB6803F0040361
:1027AC00042B1BD17B681B686FF004021A617B68D9
:1027BC0002221A777B681B689B6903F44073002B19
:1027CC0003D0786800F08AF905E0786800F07DF9AC
:1027DC00786800F08CF97B6800221A777B681B689C
:1027EC001B6903F00803082B22D17B681B68DB688C
:1027FC0003F00803082B1BD17B681B686FF00802E1
:10280C001A617B6804221A777B681B68DB6903F00A
:10281C000303002B03D0786800F060F905E07868BA
:10282C0000F053F9786800F062F97B6800221A779F
:10283C007B681B681B6903F01003102B22D17B688B
:10284C001B68DB6803F01003102B1BD17B681B6823
:10285C006FF010021A617B6808221A777B681B687C
:10286C00DB6903F44073002B03D0786800F036F971
:10287C0005E0786800F029F9786800F038F97B6891
:10288C0000221A777B681B681B6903F00103012B7C
:10289C000ED17B681B68DB6803F00103012B07D1A9
:1028AC007B681B686FF001021A617868FEF7FEFA0C
:1028BC007B681B681B6903F08003802B0ED17B683F
:1028CC001B68DB6803F08003802B07D17B681B68D7
:1028DC006FF080021A61786800F06BFA7B681B68F5
:1028EC001B6903F04003402B0ED17B681B68DB682F
:1028FC0003F04003402B07D17B681B686FF040024C
:10290C001A61786800F0FCF87B681B681B6903F09F
:10291C002003202B0ED17B681B68DB6803F020039F
:10292C00202B07D17B681B686FF020021A61786836
:10293C0000F036FA00BF0837BD4680BD80B584B0C4
:10294C0000AF786039600023FB737B6893F83C30F0
:10295C00012B01D10223B4E07B68012283F83C20D7
:10296C007B68022283F83D207B681B689B68BB60F8
:10297C00BB6823F07703BB60BB6823F47F43BB6069
:10298C007B681B68BA689A603B681B68B3F5005F8C
:10299C003ED0B3F5005F00F28780B3F5805F00F0A6
:1029AC008680B3F5805F7FD8702B1AD0702B7BD8C4
:1029BC00602B50D0602B77D8502B3CD0502B73D839
:1029CC00402B58D0402B6FD8302B64D0302B6BD889
:1029DC00202B60D0202B67D8002B5CD0102B5AD02A
:1029EC0062E07B6818683B6899683B685A683B688A
:1029FC00DB6800F05EF97B681B689B68BB60BB689A
:102A0C0043F07703BB607B681B68BA689A604FE041
:102A1C007B6818683B6899683B685A683B68DB6858
:102A2C0000F047F97B681B689A687B681B6842F466
:102A3C0080429A603CE07B6818683B6859683B6848
:102A4C00DB681A4600F0BEF87B681B6850211846FC
:102A5C0000F015F92CE07B6818683B6859683B68F6
:102A6C00DB681A4600F0DCF87B681B6860211846AE
:102A7C0000F005F91CE07B6818683B6859683B68F6
:102A8C00DB681A4600F09EF87B681B6840211846EC
:102A9C0000F0F5F80CE07B681A683B681B68194677
:102AAC00104600F0ECF803E00123FB7300E000BFDC
:102ABC007B68012283F83D207B68002283F83C2050
:102ACC00FB7B18461037BD4680BD80B483B000AF89
:102ADC00786000BF0C37BD4680BC704780B483B0B3
:102AEC0000AF786000BF0C37BD4680BC704780B427
:102AFC0083B000AF786000BF0C37BD4680BC704718
:102B0C0080B483B000AF786000BF0C37BD4680BC8A
:102B1C007047000080B485B000AF786039607B6886
:102B2C001B68FB607B68254A934207D07B68B3F136
:102B3C00804F03D07B68224A934208D1FB6823F074
:102B4C007003FB603B685B68FA681343FB607B684F
:102B5C001A4A934207D07B68B3F1804F03D07B684D
:102B6C00174A934208D1FB6823F44073FB603B681F
:102B7C00DB68FA681343FB60FB6823F080023B6858
:102B8C005B691343FB607B68FA681A603B689A6860
:102B9C007B68DA623B681A687B689A627B68074AD2
:102BAC00934203D13B681A697B681A637B680122E4
:102BBC005A6100BF1437BD4680BC7047002C0140E1
:102BCC000004004080B487B000AFF860B9607A6050
:102BDC00FB681B6A7B61FB681B6A23F00102FB68C4
:102BEC001A62FB689B693B613B6923F0F0033B6114
:102BFC007B681B013A6913433B617B6923F00A0331
:102C0C007B617A69BB6813437B61FB683A699A61A3
:102C1C00FB687A691A6200BF1C37BD4680BC7047DE
:102C2C0080B487B000AFF860B9607A60FB681B6A4B
:102C3C007B61FB681B6A23F01002FB681A62FB685D
:102C4C009B693B613B6923F470433B617B681B03CD
:102C5C003A6913433B617B6923F0A0037B61BB683A
:102C6C001B017A6913437B61FB683A699A61FB68C3
:102C7C007A691A6200BF1C37BD4680BC704780B4AD
:102C8C0085B000AF786039607B689B68FB60FB683F
:102C9C0023F07003FB603A68FB68134343F00703AF
:102CAC00FB607B68FA689A6000BF1437BD4680BC35
:102CBC00704780B487B000AFF860B9607A603B6051
:102CCC00FB689B687B617B6923F47F437B613B687A
:102CDC001A027B681A43BB6813437A6913437B61FE
:102CEC00FB687A699A6000BF1C37BD4680BC704790
:102CFC0080B485B000AF786039607B6893F83C3065
:102D0C00012B01D1022341E07B68012283F83C2096
:102D1C007B68022283F83D207B681B685B68FB6044
:102D2C007B681B689B68BB60FB6823F07003FB60CF
:102D3C003B681B68FA681343FB607B681B68FA6886
:102D4C005A607B681B68144A934209D07B681B68E5
:102D5C00B3F1804F04D07B681B68104A93420CD1AE
:102D6C00BB6823F08003BB603B685B68BA681343A5
:102D7C00BB607B681B68BA689A607B68012283F829
:102D8C003D207B68002283F83C2000231846143732
:102D9C00BD4680BC704700BF002C014000040040C1
:102DAC0080B483B000AF786000BF0C37BD4680BCE8
:102DBC00704780B483B000AF786000BF0C37BD465D
:102DCC0080BC704770B500260C4D0D4C641BA410D4
:102DDC00A64209D100F022F800260A4D0A4C641BC9
:102DEC00A410A64205D170BD55F8043B9847013696
:102DFC00EEE755F8043B98470136F2E7642E0008DD
:102E0C00642E0008642E0008682E00080346024455
:102E1C00934200D1704703F8011BF9E7F8B500BFE6
:102E2C00F8BC08BC9E467047F8B500BFF8BC08BC9F
:042E3C009E467047F7
:102E4000000000000000000001020304060708095A
:102E500002030405060708090A0B0C0D0E0F1010DB
:042E6000010200006B
:042E64003101000830
:042E68000D01000850
:102E6C00010101000101010001010100010101004A
:102E7C0064006400640000000024F4000A000000F8
:082E8C0010000000010000002D
:040000050800179147
:00000001FF
