:020000040800F2
:1000000000280020AD1900081D180008231800085A
:10001000291800082F1800083518000800000000F3
:100020000000000000000000000000003B18000875
:100030004718000800000000531800085F18000867
:10004000F5190008F5190008F5190008F519000858
:10005000F5190008F5190008F5190008F519000848
:10006000F5190008F5190008F5190008F519000838
:10007000F5190008F5190008F5190008F519000828
:10008000F5190008F5190008F5190008F519000818
:10009000F5190008F5190008F5190008F519000808
:1000A000F5190008F5190008F5190008F5190008F8
:1000B0006D180008F519000800000000F519000887
:1000C000F51900080000000000000000F519000804
:1000D00000000000F5190008F519000800000000F4
:1000E000F5190008F5190008F519000800000000CE
:1000F0000000000000000000000000000000000000
:0C01000000000000000000005FF808F1A3
:10010C0010B5054C237833B9044B13B10448AFF345
:10011C0000800123237010BD34000020000000007B
:10012C004430000808B5034B1BB103490348AFF337
:10013C00008008BD0000000038000020443000089A
:10014C0080B584B000AF78607B68BD4A82FB031237
:10015C009210DB17D31AFB607A68B94B83FB02133E
:10016C009910D317C91A0B469B000B445B00D31A8A
:10017C00BB60FB68002B14D100220121B14801F0B7
:10018C0038FF00220221AF4801F033FF0022042186
:10019C00AC4801F02EFF00220821AA4801F029FFEB
:1001AC00D6E0FB68012B14D101220121A54801F0F6
:1001BC0020FF00220221A34801F01BFF0022042192
:1001CC00A04801F016FF002208219E4801F011FF03
:1001DC00BEE0FB68022B14D100220121994801F0EA
:1001EC0008FF01220221974801F003FF002204219D
:1001FC00944801F0FEFE00220821924801F0F9FE1D
:10020C00A6E0FB68032B14D1012201218D4801F0DB
:10021C00F0FE012202218B4801F0EBFE00220421AA
:10022C00884801F0E6FE00220821864801F0E1FE34
:10023C008EE0FB68042B14D100220121814801F0CF
:10024C00D8FE002202217F4801F0D3FE01220421B6
:10025C007C4801F0CEFE002208217A4801F0C9FE4C
:10026C0076E0FB68052B14D101220121754801F0C1
:10027C00C0FE00220221734801F0BBFE01220421C2
:10028C00704801F0B6FE002208216E4801F0B1FE64
:10029C005EE0FB68062B14D100220121694801F0B5
:1002AC00A8FE01220221674801F0A3FE01220421CD
:1002BC00644801F09EFE00220821624801F099FE7C
:1002CC0046E0FB68072B14D1012201215D4801F0A7
:1002DC0090FE012202215B4801F08BFE01220421D9
:1002EC00584801F086FE00220821564801F081FE94
:1002FC002EE0FB68082B14D100220121514801F09B
:10030C0078FE002202214F4801F073FE00220421E6
:10031C004C4801F06EFE012208214A4801F069FEAA
:10032C0016E0FB68092B13D101220121454801F08D
:10033C0060FE00220221434801F05BFE00220421F2
:10034C00404801F056FE012208213E4801F051FEC2
:10035C00BB68002B14D1002210213A4801F049FE51
:10036C0000222021374801F044FE0022402135486C
:10037C0001F03FFE00228021324801F03AFEDAE023
:10038C00BB68012B14D1012210212E4801F031FE43
:10039C00002220212B4801F02CFE0022402129486C
:1003AC0001F027FE00228021264801F022FEC2E047
:1003BC00BB68022B14D100221021224801F019FE37
:1003CC00012220211F4801F014FE002240211D486B
:1003DC0001F00FFE002280211A4801F00AFEAAE06B
:1003EC00BB68032B14D101221021164801F001FE29
:1003FC0001222021134801F0FCFD0022402111486C
:10040C0001F0F7FD002280210E4801F0F2FD92E090
:10041C00BB68042B18D1002210210A4801F0E9FD19
:10042C0000222021074801F0E4FD0122402105486B
:10043C0001F0DFFD00228021024801F0DAFD7AE0B4
:10044C0067666666000C0140BB68052B14D101225F
:10045C0010213B4801F0CDFD00222021384801F04D
:10046C00C8FD01224021364801F0C3FD0022802145
:10047C00334801F0BEFD5EE0BB68062B14D10022B0
:10048C0010212F4801F0B5FD012220212C4801F04C
:10049C00B0FD012240212A4801F0ABFD0022802151
:1004AC00274801F0A6FD46E0BB68072B14D10122BA
:1004BC001021234801F09DFD01222021204801F04C
:1004CC0098FD012240211E4801F093FD002280215D
:1004DC001B4801F08EFD2EE0BB68082B14D10022C6
:1004EC001021174801F085FD00222021144801F04D
:1004FC0080FD00224021124801F07BFD0122802169
:10050C000F4801F076FD16E0BB68092B13D10122D0
:10051C0010210B4801F06DFD00222021084801F04C
:10052C0068FD00224021064801F063FD0122802174
:10053C00034801F05EFD00BF1037BD4680BD00BF13
:10054C00000C014080B584B000AF78607B68BF4A76
:10055C0082FB03129210DB17D31AFB607A68BB4B39
:10056C0083FB02139910D317C91A0B469B000B443B
:10057C005B00D31ABB60FB68002B18D100224FF430
:10058C008071B34801F035FD00224FF40071B04882
:10059C0001F02FFD00224FF48061AD4801F029FDE0
:1005AC0000224FF40061AA4801F023FDFAE0FB6839
:1005BC00012B18D101224FF48071A54801F019FDCF
:1005CC0000224FF40071A24801F013FD00224FF4F9
:1005DC0080619F4801F00DFD00224FF400619C48A2
:1005EC0001F007FDDEE0FB68022B18D100224FF46E
:1005FC008071974801F0FDFC01224FF40071944882
:10060C0001F0F7FC00224FF48061914801F0F1FCFD
:10061C0000224FF400618E4801F0EBFCC2E0FB6855
:10062C00032B18D101224FF48071894801F0E1FCB1
:10063C0001224FF40071864801F0DBFC00224FF4DC
:10064C008061834801F0D5FC00224FF400618048A2
:10065C0001F0CFFCA6E0FB68042B18D100224FF46C
:10066C0080717B4801F0C5FC00224FF40071784882
:10067C0001F0BFFC01224FF48061754801F0B9FC18
:10068C0000224FF40061724801F0B3FC8AE0FB6871
:10069C00052B18D101224FF480716D4801F0A9FC93
:1006AC0000224FF400716A4801F0A3FC01224FF4C0
:1006BC008061674801F09DFC00224FF400616448A2
:1006CC0001F097FC6EE0FB68062B18D100224FF46A
:1006DC0080715F4801F08DFC01224FF400715C4881
:1006EC0001F087FC01224FF48061594801F081FC34
:1006FC0000224FF40061564801F07BFC52E0FB688D
:10070C00072B18D101224FF48071514801F071FC74
:10071C0001224FF400714E4801F06BFC01224FF4A2
:10072C0080614B4801F065FC00224FF400614848A1
:10073C0001F05FFC36E0FB68082B18D100224FF467
:10074C008071434801F055FC00224FF40071404881
:10075C0001F04FFC00224FF480613D4801F049FC50
:10076C0001224FF400613A4801F043FC1AE0FB68A7
:10077C00092B17D101224FF48071354801F039FC57
:10078C0000224FF40071324801F033FC00224FF488
:10079C0080612F4801F02DFC01224FF400612C48A0
:1007AC0001F027FCBB68002B18D100224FF48051BC
:1007BC00274801F01EFC00224FF40051244801F0A0
:1007CC0018FC00224FF48041214801F012FC002259
:1007DC004FF400411E4801F00CFCFEE0BB68012BFD
:1007EC0018D101224FF48051194801F002FC00226B
:1007FC004FF40051164801F0FCFB00224FF48041ED
:10080C00134801F0F6FB00224FF40041104801F0B0
:10081C00F0FBE2E0BB68022B1CD100224FF48051AC
:10082C000B4801F0E6FB01224FF40051084801F09F
:10083C00E0FB00224FF48041054801F0DAFB002276
:10084C004FF40041024801F0D4FBC6E067666666CF
:10085C00000C0140BB68032B18D101224FF48051CE
:10086C00604801F0C6FB01224FF400515D4801F0D5
:10087C00C0FB00224FF480415A4801F0BAFB002221
:10088C004FF40041574801F0B4FBA6E0BB68042BC1
:10089C0018D100224FF48051524801F0AAFB0022DB
:1008AC004FF400514F4801F0A4FB01224FF480415A
:1008BC004C4801F09EFB00224FF40041494801F0E6
:1008CC0098FB8AE0BB68052B18D101224FF48051AC
:1008DC00444801F08EFB00224FF40051414801F0D6
:1008EC0088FB01224FF480413E4801F082FB00223C
:1008FC004FF400413B4801F07CFB6EE0BB68062BDB
:10090C0018D100224FF48051364801F072FB0122BD
:10091C004FF40051334801F06CFB01224FF480413D
:10092C00304801F066FB00224FF400412D4801F0E5
:10093C0060FB52E0BB68072B18D101224FF48051A9
:10094C00284801F056FB01224FF40051254801F0D4
:10095C0050FB01224FF48041224801F04AFB002257
:10096C004FF400411F4801F044FB36E0BB68082BF4
:10097C0018D100224FF480511A4801F03AFB0022A2
:10098C004FF40051174801F034FB00224FF4804122
:10099C00144801F02EFB01224FF40041114801F0E4
:1009AC0028FB1AE0BB68092B17D101224FF48051A8
:1009BC000C4801F01EFB00224FF40051094801F0D5
:1009CC0018FB00224FF48041064801F012FB012273
:1009DC004FF40041034801F00CFB00BF1037BD463B
:1009EC0080BD00BF000C014080B582B000AF7860C4
:1009FC007B68012B18D101224FF40061364801F0BD
:100A0C00F8FA00224FF48051334801F0F2FA002238
:100A1C004FF40051304801F0ECFA00224FF48041C1
:100A2C002D4801F0E6FA52E07B68022B18D1002227
:100A3C004FF40061284801F0DCFA01224FF4805198
:100A4C00254801F0D6FA00224FF40051224801F05B
:100A5C00D0FA00224FF480411F4801F0CAFA36E068
:100A6C007B68032B18D101224FF400611A4801F066
:100A7C00C0FA01224FF48051174801F0BAFA002253
:100A8C004FF40051144801F0B4FA00224FF48041A5
:100A9C00114801F0AEFA1AE07B68042B17D1002242
:100AAC004FF400610C4801F0A4FA00224FF480517D
:100ABC00094801F09EFA01224FF40051064801F05A
:100ACC0098FA00224FF48041034801F092FA00BFDB
:100ADC000837BD4680BD00BF0008014090B583B00B
:100AEC0000AF0023FB7187E0FA79FB794749895CF9
:100AFC00474AD154FB79022B1BD0022B24DC002B50
:100B0C0002D0012B0AD01FE0FC798021414801F072
:100B1C0059FA03461A463D4B1A5516E0FC794FF428
:100B2C0080713C4801F04EFA03461A46374B1A5571
:100B3C000BE0FC794FF40071364801F043FA0346A0
:100B4C001A46324B1A5500E000BFFB792F4AD25C93
:100B5C00FB792F49CB5C9A424BD1FB792C4AD25C66
:100B6C00FB792D49CB5C9A4214D0FA79FB79284950
:100B7C00895C294AD154FB79274AD35C002B38D1A4
:100B8C00FB79264A0021D154FB79254A642122F8AD
:100B9C0013102EE0FB79224A32F81320013A91B25D
:100BAC001F4A22F81310FB791D4A32F81330002B20
:100BBC001FD1FB79184AD35C002B0CD1FB79184A56
:100BCC00642122F81310FB79144A0121D154FB79CA
:100BDC00144A0121D154FB790F4AD35C012B08D163
:100BEC00FB790F4A642122F81310FB790D4A00217E
:100BFC00D154FB790133FB71FB79022B7FF674AF77
:100C0C0000BF00BF0C37BD4690BD00BF10000020D8
:100C1C001400002000080140180000200C000020E7
:100C2C001C0000205C00002080B485B000AF03469F
:100C3C00FB71FB79022B01D900230DE0FB79094AEA
:100C4C00D35CFB73FB79074A0121D154FB7B002B4E
:100C5C000CBF01230023DBB218461437BD4680BC01
:100C6C00704700BF0C00002080B485B000AF034675
:100C7C00FB71FB79022B01D9FF230DE0FB79094AAB
:100C8C00D35CFB73FB79074A0021D154FB7B012B0E
:100C9C000CBF01230023DBB218461437BD4680BCC1
:100CAC00704700BF5C00002080B500AF00F09EFED6
:100CBC0000F012F800F098F800F04AF8054801F03E
:100CCC00F7FD00F00BF900F053FB00F0FFFB00F018
:100CDC00ABFCF6E76000002080B590B000AF07F1E8
:100CEC00180328220021184602F09EF93B1D002211
:100CFC001A605A609A60DA601A610223BB610123A0
:100D0C00BB621023FB6200237B6307F118031846B8
:100D1C0001F0A0F90346002B01D000F0DAF80F2304
:100D2C007B600023BB600023FB6000233B6100233E
:100D3C007B613B1D0021184601F00EFC0346002B85
:100D4C0001D000F0C6F800BF4037BD4680BD0000A2
:100D5C0080B586B000AF07F1080300221A605A6014
:100D6C009A60DA603B4600221A605A601D4B4FF0C5
:100D7C0080421A601B4B41F63F725A60194B00229D
:100D8C009A60184B0922DA60164B00221A61154B37
:100D9C0000229A61134801F03BFD0346002B01D061
:100DAC0000F097F84FF48053BB6007F10803194625
:100DBC000C4801F0D1FE0346002B01D000F089F85D
:100DCC0000233B6000237B603B461946054802F03C
:100DDC009DF80346002B01D000F07BF800BF1837BC
:100DEC00BD4680BD6000002080B586B000AF07F125
:100DFC00080300221A605A609A60DA60294B9B69DA
:100E0C00284A43F004039361264B9B6903F00403C7
:100E1C007B607B68234B9B69224A43F008039361F8
:100E2C00204B9B6903F008033B603B6800224FF6A4
:100E3C007E011D4801F0DDF800224FF6FF711B48C2
:100E4C0001F0D7F84FF67E03BB600123FB60002353
:100E5C003B6102237B6107F108031946124800F03D
:100E6C0035FF4FF46073BB600023FB6001233B61D3
:100E7C0007F1080319460C4800F028FF4FF6FF73E2
:100E8C00BB600123FB6000233B6102237B6107F104
:100E9C0008031946054800F019FF00BF1837BD4676
:100EAC0080BD00BF0010024000080140000C014052
:100EBC0080B582B000AF78607B681B68B3F1804F5F
:100ECC0001D1FFF70BFE00F029FD00BF0837BD462E
:100EDC0080BD80B400AF72B600BFFEE780B500AF36
:100EEC00954B1B680E2B00F2258201A252F823F0C1
:100EFC00390F000841130008411300084113000882
:100F0C004113000841130008411300084113000865
:100F1C004113000841130008411300086B0F00082F
:100F2C005B1000086911000859120008834B1B68FC
:100F3C00834A1360834B1B68834A13607E4B0B22DE
:100F4C001A604FF47A7000F09BFC7E4B1B684FF4D8
:100F5C007A7202FB03F3184600F0ACFCF3E10122B9
:100F6C0002217A4801F045F800220421774801F06B
:100F7C0040F800220821754801F03BF800221021AE
:100F8C00724801F036F800222021704801F031F847
:100F9C00012240216D4801F02CF8694B1B68184662
:100FAC00FFF7CEF8684B1B681846FFF7CBFA012009
:100FBC00FFF71AFD664B1B68012B0DD14FF47A70AD
:100FCC0000F05EFC5E4B1B68013B5D4A13605E4BA0
:100FDC001B68013B5C4A13605E4B1B68012B1AD1EA
:100FEC00554B0C221A60554B1A68564B1B68D31A7A
:100FFC00534A1360584B1B68534A13604FF47A7072
:10100C0000F03EFC544B1B684FF47A7202FB03F366
:10101C00184600F04FFC0020FFF706FE0346002B9D
:10102C0000F08A81444B14221A60454B14221A603A
:10103C00454B00221A604FF47A7000F021FC46F206
:10104C00A81000F037FCFA2000F04EFC74E10122ED
:10105C0002213E4800F0CDFF002204213B4800F065
:10106C00C8FF00220821394800F0C3FF00221021DC
:10107C00364800F0BEFF01222021344800F0B9FFB1
:10108C0000224021314800F0B4FF2D4B1B6818465C
:10109C00FFF756F82C4B1B681846FFF753FA012044
:1010AC00FFF7A2FC2A4B1B68012B0DD14FF47A7071
:1010BC0000F0E6FB224B1B68013B214A1360224BDC
:1010CC001B68013B204A1360224B1B68012B17D174
:1010DC00194B0D221A601B4B1B68194A1360174BD6
:1010EC001B68194A13604FF47A7000F0C9FB154B5A
:1010FC001B684FF47A7202FB03F3184600F0DAFB1C
:10110C000020FFF791FD0346002B00F017810A4BDE
:10111C0014221A600A4B14221A600B4B00221A601C
:10112C004FF47A7000F0ACFB46F2A81000F0C2FB52
:10113C00FA2000F0D9FB01E158000020000000204B
:10114C00500000200800002054000020000801403E
:10115C00B4000020B800002004000020002202216E
:10116C007A4800F046FF00220421784800F041FF45
:10117C0001220821754800F03CFF01221021734820
:10118C0000F037FF00222021704800F032FF0022CF
:10119C0040216E4800F02DFF6D4B1B681846FEF782
:1011AC00CFFF6C4B1B681846FFF7CCF90120FFF7FB
:1011BC001BFC694B1B68012B0DD14FF47A7000F0AE
:1011CC005FFB634B1B68013B614A1360614B1B68FF
:1011DC00013B604A1360614B1B68012B1AD1604BB9
:1011EC000E221A605F4B1B68594A13605E4B1A68DB
:1011FC005E4B1B68D31A574A13604FF47A7000F099
:10120C003FFB584B1B684FF47A7202FB03F31846F2
:10121C0000F050FB0020FFF707FD0346002B00F009
:10122C008F804F4B14221A60494B14221A60494B81
:10123C0000221A604FF47A7000F022FB46F2A810DC
:10124C0000F038FBFA2000F04FFB79E0002202217D
:10125C003E4800F0CEFE012204213C4800F0C9FEBD
:10126C0000220821394800F0C4FE01221021374821
:10127C0000F0BFFE00222021344800F0BAFE00220C
:10128C004021324800F0B5FE314B1B681846FEF782
:10129C0057FF304B1B681846FFF754F90120FFF736
:1012AC00A3FB2D4B1B68012B0DD14FF47A7000F072
:1012BC00E7FA274B1B68013B254A1360254B1B683B
:1012CC00013B244A1360254B1B68012B17D1244B7F
:1012DC000B221A60244B1B681D4A1360234B1B689E
:1012EC001C4A13604FF47A7000F0CAFA1F4B1B684B
:1012FC004FF47A7202FB03F3184600F0DBFA00207D
:10130C00FFF792FC0346002B1CD0154B14221A60DD
:10131C000F4B14221A600F4B00221A604FF47A7094
:10132C0000F0AEFA46F2A81000F0C4FAFA2000F071
:10133C00DBFA07E000BF06E000BF04E000BF02E0FC
:10134C0000BF00E000BF00BF80BD00BF000801402F
:10135C005000002054000020B4000020B8000020F1
:10136C00580000200400002000000020080000208D
:10137C0080B500AF4B4B1B68142B40F090804A4B50
:10138C001B681846FEF7DCFE484B1B681846FFF737
:10139C00D9F80220FFF728FB454B1B68012B1ED107
:1013AC000221444800F03DFE1021424800F039FE75
:1013BC00002204213F4800F01CFE002208213D4879
:1013CC0000F017FE002220213A4800F012FE002205
:1013DC004021384800F00DFEFA2000F085FA364B1B
:1013EC001B68012B08D1304B1B68013B2E4A136044
:1013FC004FF47A7000F044FA0020FFF715FC034616
:10140C00002B03D12D4B1B68012B13D1254B1E2216
:10141C001A60254B14221A60244B00221A604FF4D8
:10142C007A7000F02DFA46F2A81000F043FAFA2078
:10143C0000F05AFA0120FFF7F7FB0346002B05D109
:10144C000120FFF711FC0346002B0ED0174B1A6836
:10145C001B4B1B681A441B4B1B681344632B04DC8B
:10146C00124B1B680133114A13600220FFF7DCFB9F
:10147C000346002B13D00D4B1B680B4A13600B4B10
:10148C001B68114A1360094B1B684FF47A7202FBFC
:10149C0003F3184600F00EFA044B00221A6000BF4A
:1014AC0080BD00BF580000205000002054000020D8
:1014BC00BC00002000080140B4000020B80000204F
:1014CC0004000020080000200000002080B500AFC0
:1014DC004B4B1B681E2B40F090804A4B1B681846E8
:1014EC00FEF72EFE484B1B681846FFF72BF803201F
:1014FC00FFF77AFA454B1B68012B1ED10421444897
:10150C0000F08FFD2021424800F08BFD00220221CB
:10151C003F4800F06EFD002208213D4800F069FDB7
:10152C00002210213A4800F064FD00224021384886
:10153C0000F05FFDFA2000F0D7F9364B1B68012B49
:10154C0008D1304B1B68013B2E4A13604FF47A7064
:10155C0000F096F90020FFF767FB0346002B03D140
:10156C002D4B1B68012B13D1254B28221A60254BC0
:10157C0014221A60244B00221A604FF47A7000F087
:10158C007FF946F2A81000F095F9FA2000F0ACF9BA
:10159C000120FFF749FB0346002B05D10120FFF783
:1015AC0063FB0346002B0ED01C4B1A68164B1B68B2
:1015BC001A441B4B1B681344632B04DC124B1B6833
:1015CC000133114A13600220FFF72EFB0346002B58
:1015DC0013D00D4B1B680B4A13600B4B1B68114A45
:1015EC001360094B1B684FF47A7202FB03F3184625
:1015FC0000F060F9044B00221A6000BF80BD00BFF0
:10160C00580000205000002054000020BC00002096
:10161C0000080140B4000020B800002000000020A9
:10162C00080000200400002080B500AF4B4B1B6865
:10163C00282B40F090804A4B1B681846FEF780FD23
:10164C00484B1B681846FEF77DFF0420FFF7CCF9CA
:10165C00454B1B68012B1ED10821444800F0E1FCCE
:10166C004021424800F0DDFC002204213F4800F0FC
:10167C00C0FC002202213D4800F0BBFC00222021CE
:10168C003A4800F0B6FC00221021384800F0B1FCBA
:10169C00FA2000F029F9364B1B68012B08D1304B8E
:1016AC001B68013B2E4A13604FF47A7000F0E8F887
:1016BC000020FFF7B9FA0346002B03D12D4B1B6812
:1016CC00012B13D1254B00221A60254B14221A60D2
:1016DC00244B00221A604FF47A7000F0D1F846F2D5
:1016EC00A81000F0E7F8FA2000F0FEF80120FFF750
:1016FC009BFA0346002B05D10120FFF7B5FA0346F0
:10170C00002B0ED01C4B1A681C4B1B681A44154B33
:10171C001B681344632B04DC124B1B680133114A06
:10172C0013600220FFF780FA0346002B13D00D4BF9
:10173C001B680B4A13600B4B1B68114A1360094B57
:10174C001B684FF47A7202FB03F3184600F0B2F8F0
:10175C00044B00221A6000BF80BD00BF580000205F
:10176C005000002054000020BC0000200008014064
:10177C00B4000020B800002000000020040000206D
:10178C000800002080B483B000AF0E4B9B690D4A5B
:10179C0043F0010393610B4B9B6903F001037B60E6
:1017AC007B68084BDB69074A43F08053D361054BD8
:1017BC00DB6903F080533B603B6800BF0C37BD46D0
:1017CC0080BC70470010024080B584B000AF7860D8
:1017DC007B681B68B3F1804F13D10C4BDB690B4A50
:1017EC0043F00103D361094BDB6903F00103FB6098
:1017FC00FB68002200211C2000F031FA1C2000F0B4
:10180C004AFA00BF1037BD4680BD00BF0010024031
:10181C0080B400AFFEE780B400AFFEE780B400AF49
:10182C00FEE780B400AFFEE780B400AFFEE780B403
:10183C0000AF00BFBD4680BC704780B400AF00BF96
:10184C00BD4680BC704780B400AF00BFBD4680BCB5
:10185C00704780B500AF00F00FF900BF80BD0000ED
:10186C0080B500AF024801F06FF800BF80BD00BF2B
:10187C006000002080B400AF00BFBD4680BC704744
:10188C0080B483B000AF7860074B1B687A6892FB1A
:10189C00F3F3064A1360064B00221A6000BF0C37A4
:1018AC00BD4680BC704700BF28000020A800002067
:1018BC00B400002080B483B000AF7860074B1B6885
:1018CC007A6892FBF3F3064A1360064B00221A6007
:1018DC0000BF0C37BD4680BC704700BF28000020FD
:1018EC00AC000020B800002080B483B000AF78605A
:1018FC00074B1B687A6892FBF3F3064A1360064B9E
:10190C0000221A6000BF0C37BD4680BC704700BF78
:10191C0028000020B0000020BC00002080B400AFE4
:10192C00194B1B68002B0BDD174B1B68013B164A30
:10193C001360154B1B68002B02D1144B01221A604B
:10194C00134B1B68002B0BDD114B1B68013B104A22
:10195C0013600F4B1B68002B02D10E4B01221A6037
:10196C000D4B1B68002B0BDD0B4B1B68013B0A4A14
:10197C001360094B1B68002B02D1084B01221A6023
:10198C0000BFBD4680BC7047A8000020B4000020FA
:10199C00AC000020B8000020B0000020BC000020EB
:1019AC00FFF768FF0B480C490C4A002302E0D4589F
:1019BC00C4500433C4188C42F9D3094A094C00238F
:1019CC0001E013600432A242FBD301F009FBFFF7E4
:1019DC006BF97047000000203400002088300008AC
:1019EC0034000020C4000020FEE7000080B500AFEA
:1019FC00084B1B68074A43F010031360032000F0E8
:101A0C0023F90F2000F008F8FFF7BCFE002318465E
:101A1C0080BD00BF0020024080B582B000AF78606E
:101A2C00124B1A68124B1B7819464FF47A73B3FB9E
:101A3C00F1F3B2FBF3F3184600F03BF90346002B2D
:101A4C0001D001230EE07B680F2B0AD800227968A5
:101A5C004FF0FF3000F003F9064A7B681360002357
:101A6C0000E0012318460837BD4680BD2400002045
:101A7C00300000202C00002080B400AF054B1B78F8
:101A8C001A46054B1B681344034A136000BFBD463E
:101A9C0080BC704730000020C000002080B400AF34
:101AAC00024B1B681846BD4680BC7047C000002026
:101ABC0080B485B000AF78607B6803F00703FB60EF
:101ACC000C4BDB68BB60BA684FF6FF031340BB607E
:101ADC00FB681A02BB68134343F0BF6343F4003343
:101AEC00BB60044ABB68D36000BF1437BD4680BCE2
:101AFC00704700BF00ED00E080B400AF044BDB6822
:101B0C001B0A03F007031846BD4680BC704700BF94
:101B1C0000ED00E080B483B000AF0346FB7197F991
:101B2C000730002B0BDBFB7903F01F02064997F9FA
:101B3C0007305B09012000FA02F241F8232000BFB4
:101B4C000C37BD4680BC704700E100E080B483B028
:101B5C0000AF03463960FB7197F90730002B0ADBA5
:101B6C003B68DAB20C4997F907301201D2B20B4438
:101B7C0083F800230AE03B68DAB20849FB7903F0EA
:101B8C000F03043B1201D2B20B441A7600BF0C3780
:101B9C00BD4680BC704700BF00E100E000ED00E0F6
:101BAC0080B489B000AFF860B9607A60FB6803F06C
:101BBC000703FB61FB69C3F10703042B28BF042354
:101BCC00BB61FB690433062B02D9FB69033B00E0C4
:101BDC0000237B614FF0FF32BB6902FA03F3DA4357
:101BEC00BB681A407B699A404FF0FF317B6901FA60
:101BFC0003F3D9437B680B40134318462437BD4687
:101C0C0080BC704780B582B000AF78607B68013BC8
:101C1C00B3F1807F01D301230FE00A4A7B68013BBB
:101C2C0053600F214FF0FF30FFF790FF054B002260
:101C3C009A60044B07221A60002318460837BD46E9
:101C4C0080BD00BF10E000E080B582B000AF7860CE
:101C5C007868FFF72DFF00BF0837BD4680BD80B503
:101C6C0086B000AF0346B9607A60FB7300237B61DA
:101C7C00FFF742FF78617A68B9687869FFF790FFDF
:101C8C00024697F90F3011461846FFF75FFF00BF69
:101C9C001837BD4680BD80B582B000AF0346FB71DE
:101CAC0097F907301846FFF735FF00BF0837BD46D8
:101CBC0080BD80B582B000AF78607868FFF7A2FF76
:101CCC00034618460837BD4680BD000080B48BB073
:101CDC0000AF7860396000237B6200233B6261E1D6
:101CEC0001227B6A02FA03F3FB613B681B68FA6909
:101CFC001340BB61BA69FB699A4240F050813B6862
:101D0C005B68974A93425ED0954A934275D8954A40
:101D1C00934258D0934A93426FD8934A934252D0ED
:101D2C00914A934269D8914A93424CD08F4A93423C
:101D3C0063D88F4A934246D08D4A93425DD8122B7A
:101D4C002AD8122B59D801A252F823F0D31D00081F
:101D5C00AD1D0008BF1D0008011E0008071E00086D
:101D6C00071E0008071E0008071E0008071E0008B3
:101D7C00071E0008071E0008071E0008071E0008A3
:101D8C00071E0008071E0008071E0008071E000893
:101D9C00B51D0008C91D0008764A934213D02CE0EB
:101DAC003B68DB683B6229E03B68DB6804333B62E1
:101DBC0024E03B68DB6808333B621FE03B68DB6870
:101DCC000C333B621AE03B689B68002B02D1042366
:101DDC003B6213E03B689B68012B05D108233B62F7
:101DEC007B68FA691A6109E008233B627B68FA692F
:101DFC005A6103E000233B6200E000BFBB69FF2B8C
:101E0C0001D87B6801E07B6804337B61BB69FF2BE5
:101E1C0002D87B6A9B0002E07B6A083B9B003B611B
:101E2C007B691A680F213B6901FA03F3DB431A4003
:101E3C00396A3B6901FA03F31A437B691A603B6800
:101E4C005B6803F08053002B00F0A9804A4B9B6920
:101E5C00494A43F001039361474B9B6903F001032B
:101E6C00BB60BB68454A7B6A9B08023352F823303F
:101E7C00FB607B6A03F003039B000F2202FA03F35F
:101E8C00DB43FA681340FB607B683D4A93420DD0FC
:101E9C007B683C4A934207D07B683B4A934201D112
:101EAC00022304E0032302E0012300E000237A6A0A
:101EBC0002F0030292009340FA681343FB602F492F
:101ECC007B6A9B080233FA6841F823203B685B6805
:101EDC0003F48013002B06D02C4B9A682B49BB695A
:101EEC0013438B6006E0294B9A68BB69DB43274997
:101EFC0013408B603B685B6803F40013002B06D027
:101F0C00224BDA682149BB691343CB6006E01F4BB7
:101F1C00DA68BB69DB431D491340CB603B685B68E7
:101F2C0003F40033002B06D0184B5A681749BB69D1
:101F3C0013434B6006E0154B5A68BB69DB431349EE
:101F4C0013404B603B685B6803F48033002B1FD05D
:101F5C000E4B1A680D49BB6913430B601FE000BFA1
:101F6C00000032100000311000002210000021107F
:101F7C00000012100000111000100240000001407F
:101F8C0000080140000C0140001001400004014019
:101F9C000B4B1A68BB69DB43094913400B607B6A26
:101FAC0001337B623B681A687B6A22FA03F3002BCD
:101FBC007FF496AE00BF00BF2C37BD4680BC704787
:101FCC000004014080B485B000AF78600B467B8084
:101FDC007B689A687B881340002B02D00123FB732B
:101FEC0001E00023FB73FB7B18461437BD4680BC15
:101FFC00704780B483B000AF78600B467B8013468B
:10200C007B707B78002B03D07A887B681A6103E0A5
:10201C007B881A047B681A6100BF0C37BD4680BCF4
:10202C00704780B485B000AF78600B467B807B68CE
:10203C00DB68FB607A88FB6813401A04FB68D943A1
:10204C007B880B401A437B681A6100BF1437BD466E
:10205C0080BC704780B586B000AF78607B68002B81
:10206C0001D1012372E27B681B6803F00103002B92
:10207C0000F08780924B5B6803F00C03042B0CD0B0
:10208C008F4B5B6803F00C03082B12D18C4B5B68F5
:10209C0003F48033B3F5803F0BD1894B1B6803F4F9
:1020AC000033002B6CD07B685B68002B68D101235C
:1020BC004CE27B685B68B3F5803F06D1804B1B68B4
:1020CC007F4A43F4803313602EE07B685B68002BFF
:1020DC000CD17B4B1B687A4A23F480331360784B0A
:1020EC001B68774A23F4802313601DE07B685B68D0
:1020FC00B3F5A02F0CD1724B1B68714A43F48023AB
:10210C0013606F4B1B686E4A43F4803313600BE013
:10211C006B4B1B686A4A23F480331360684B1B6853
:10212C00674A23F4802313607B685B68002B13D011
:10213C00FFF7B4FC386108E0FFF7B0FC02463B69DE
:10214C00D31A642B01D9032300E25D4B1B6803F403
:10215C000033002BF0D014E0FFF7A0FC386108E04E
:10216C00FFF79CFC02463B69D31A642B01D903236D
:10217C00ECE1534B1B6803F40033002BF0D100E06F
:10218C0000BF7B681B6803F00203002B63D04C4B31
:10219C005B6803F00C03002B0BD0494B5B6803F01E
:1021AC000C03082B1CD1464B5B6803F48033002BCB
:1021BC0016D1434B1B6803F00203002B05D07B6840
:1021CC001B69012B01D00123C0E13D4B1B6823F09F
:1021DC00F8027B685B69DB00394913430B603AE01A
:1021EC007B681B69002B20D0364B01221A60FFF74D
:1021FC0055FC386108E0FFF751FC02463B69D31AE5
:10220C00022B01D90323A1E12D4B1B6803F0020320
:10221C00002BF0D02A4B1B6823F0F8027B685B691B
:10222C00DB00274913430B6015E0264B00221A6094
:10223C00FFF734FC386108E0FFF730FC02463B69DD
:10224C00D31A022B01D9032380E11D4B1B6803F029
:10225C000203002BF0D17B681B6803F00803002BF2
:10226C003AD07B689B69002B19D0174B01221A605E
:10227C00FFF714FC386108E0FFF710FC02463B69DD
:10228C00D31A022B01D9032360E10D4B5B6A03F0D7
:10229C000203002BF0D0012000F09CFA1CE00A4B4A
:1022AC0000221A60FFF7FAFB38610FE0FFF7F6FB2C
:1022BC0002463B69D31A022B08D9032346E100BF1F
:1022CC00001002400000424280044242924B5B6A82
:1022DC0003F00203002BE9D17B681B6803F00403B5
:1022EC00002B00F0A6800023FB758B4BDB6903F001
:1022FC008053002B0DD1884BDB69874A43F0805308
:10230C00D361854BDB6903F08053BB60BB68012351
:10231C00FB75824B1B6803F48073002B18D17F4B29
:10232C001B687E4A43F480731360FFF7B7FB386178
:10233C0008E0FFF7B3FB02463B69D31A642B01D9C3
:10234C00032303E1754B1B6803F48073002BF0D05F
:10235C007B68DB68012B06D16F4B1B6A6E4A43F01E
:10236C00010313622DE07B68DB68002B0CD16A4BF8
:10237C001B6A694A23F001031362674B1B6A664AA6
:10238C0023F0040313621CE07B68DB68052B0CD183
:10239C00614B1B6A604A43F0040313625E4B1B6A79
:1023AC005D4A43F0010313620BE05B4B1B6A5A4A14
:1023BC0023F001031362584B1B6A574A23F00403A2
:1023CC0013627B68DB68002B15D0FFF767FB386165
:1023DC000AE0FFF763FB02463B69D31A41F28832ED
:1023EC00934201D90323B1E04B4B1B6A03F0020368
:1023FC00002BEED014E0FFF751FB38610AE0FFF739
:10240C004DFB02463B69D31A41F28832934201D903
:10241C0003239BE0404B1B6A03F00203002BEED11D
:10242C00FB7D012B05D13C4BDB693B4A23F08053F0
:10243C00D3617B68DB69002B00F08780364B5B68CF
:10244C0003F00C03082B61D07B68DB69022B46D1AF
:10245C00334B00221A60FFF721FB386108E0FFF7CD
:10246C001DFB02463B69D31A022B01D903236DE0F5
:10247C00294B1B6803F00073002BF0D17B681B6A9F
:10248C00B3F5803F08D1244B5B6823F400327B68A2
:10249C009B68214913434B601F4B5B6823F47412F8
:1024AC007B68196A7B685B6A0B431B4913434B605F
:1024BC001B4B01221A60FFF7F1FA386108E0FFF7B5
:1024CC00EDFA02463B69D31A022B01D903233DE0F6
:1024DC00114B1B6803F00073002BF0D035E0104B50
:1024EC0000221A60FFF7DAFA386108E0FFF7D6FA33
:1024FC0002463B69D31A022B01D9032326E0064B73
:10250C001B6803F00073002BF0D11EE07B68DB69C5
:10251C00012B07D1012319E000100240007000408C
:10252C00600042420B4B5B68FB60FB6803F480323B
:10253C007B681B6A9A4206D1FB6803F470127B68B5
:10254C005B6A9A4201D0012300E000231846183739
:10255C00BD4680BD0010024080B584B000AF7860ED
:10256C0039607B68002B01D10123D0E06A4B1B68DA
:10257C0003F007033A689A4210D9674B1B6823F0A3
:10258C00070265493B6813430B60634B1B6803F000
:10259C0007033A689A4201D00123B8E07B681B68B4
:1025AC0003F00203002B20D07B681B6803F00403AC
:1025BC00002B05D0594B5B68584A43F4E0635360D9
:1025CC007B681B6803F00803002B05D0534B5B683A
:1025DC00524A43F460535360504B5B6823F0F00253
:1025EC007B689B684D4913434B607B681B6803F009
:1025FC000103002B40D07B685B68012B07D1474B54
:10260C001B6803F40033002B15D101237FE07B689A
:10261C005B68022B07D1414B1B6803F00073002B46
:10262C0009D1012373E03D4B1B6803F00203002B1F
:10263C0001D101236BE0394B5B6823F003027B680B
:10264C005B68364913434B60FFF728FAF8600AE0E1
:10265C00FFF724FA0246FB68D31A41F28832934200
:10266C0001D9032353E02D4B5B6803F00C027B680C
:10267C005B689B009A42EBD1274B1B6803F0070366
:10268C003A689A4210D2244B1B6823F00702224965
:10269C003B6813430B60204B1B6803F007033A683D
:1026AC009A4201D0012332E07B681B6803F00403DB
:1026BC00002B08D0194B5B6823F4E0627B68DB6865
:1026CC00164913434B607B681B6803F00803002B0F
:1026DC0009D0124B5B6823F460527B681B69DB00EA
:1026EC000E4913434B6000F021F802460B4B5B681C
:1026FC001B0903F00F030A49CB5C22FA03F3094AC6
:10270C001360094B1B681846FFF786F9002318461F
:10271C001037BD4680BD00BF0020024000100240B3
:10272C005C300008240000202C00002080B487B00E
:10273C0000AF0023FB600023BB6000237B61002300
:10274C007B6000233B611E4B5B68FB60FB6803F006
:10275C000C03042B02D0082B03D027E0194B3B6150
:10276C0027E0FB689B0C03F00F03174AD35C7B60DC
:10277C00FB6803F48033002B10D0114B5B685B0CAF
:10278C0003F00103114AD35CBB607B680D4A03FB69
:10279C0002F2BB68B2FBF3F37B6104E07B680C4A8A
:1027AC0002FB03F37B617B693B6102E0054B3B6100
:1027BC0000BF3B6918461C37BD4680BC704700BF44
:1027CC000010024000127A006C3000087C300008C7
:1027DC0000093D0080B485B000AF78600A4B1B68DF
:1027EC000A4AA2FB03235B0A7A6802FB03F3FB6031
:1027FC0000BFFB685A1EFA60002BF9D100BF00BF66
:10280C001437BD4680BC704724000020D34D6210A5
:10281C0080B582B000AF78607B68002B01D10123BA
:10282C0041E07B6893F83D30DBB2002B06D17B682E
:10283C00002283F83C207868FEF7C6FF7B680222F2
:10284C0083F83D207B681A687B6804331946104670
:10285C0000F06EFA7B68012283F846207B68012227
:10286C0083F83E207B68012283F83F207B6801229D
:10287C0083F840207B68012283F841207B68012289
:10288C0083F842207B68012283F843207B68012275
:10289C0083F844207B68012283F845207B68012261
:1028AC0083F83D20002318460837BD4680BD000044
:1028BC0080B485B000AF78607B6893F83D30DBB2B4
:1028CC00012B01D0012335E07B68022283F83D20E7
:1028DC007B681B68DA687B681B6842F00102DA606F
:1028EC007B681B68164A934209D07B681B68B3F15E
:1028FC00804F04D07B681B68124A934211D17B68CD
:10290C001B689B6803F00703FB60FB68062B10D069
:10291C007B681B681A687B681B6842F001021A60AE
:10292C0007E07B681B681A687B681B6842F0010231
:10293C001A60002318461437BD4680BC704700BF90
:10294C00002C01400004004080B582B000AF7860DC
:10295C007B681B681B6903F00203022B22D17B6886
:10296C001B68DB6803F00203022B1BD17B681B681E
:10297C006FF002021A617B6801221A777B681B6870
:10298C009B6903F00303002B03D0786800F0B4F9C3
:10299C0005E0786800F0A7F9786800F0B6F97B6874
:1029AC0000221A777B681B681B6903F00403042B55
:1029BC0022D17B681B68DB6803F00403042B1BD15A
:1029CC007B681B686FF004021A617B6802221A771D
:1029DC007B681B689B6903F44073002B03D07868F9
:1029EC0000F08AF905E0786800F07DF9786800F06D
:1029FC008CF97B6800221A777B681B681B6903F0D3
:102A0C000803082B22D17B681B68DB6803F00803E2
:102A1C00082B1BD17B681B686FF008021A617B685E
:102A2C0004221A777B681B68DB6903F00303002B15
:102A3C0003D0786800F060F905E0786800F053F98D
:102A4C00786800F062F97B6800221A777B681B6853
:102A5C001B6903F01003102B22D17B681B68DB6809
:102A6C0003F01003102B1BD17B681B686FF0100256
:102A7C001A617B6808221A777B681B68DB6903F490
:102A8C004073002B03D0786800F036F905E07868C5
:102A9C0000F029F9786800F038F97B6800221A7781
:102AAC007B681B681B6903F00103012B0ED17B684B
:102ABC001B68DB6803F00103012B07D17B681B68E3
:102ACC006FF001021A617868FEF7F2F97B681B68F7
:102ADC001B6903F08003802B0ED17B681B68DB68BD
:102AEC0003F08003802B07D17B681B686FF080029A
:102AFC001A61786800F06BFA7B681B681B6903F03D
:102B0C004003402B0ED17B681B68DB6803F040034D
:102B1C00402B07D17B681B686FF040021A61786804
:102B2C0000F0FCF87B681B681B6903F02003202B6A
:102B3C000ED17B681B68DB6803F02003202B07D1C8
:102B4C007B681B686FF020021A61786800F036FA17
:102B5C0000BF0837BD4680BD80B584B000AF78603B
:102B6C0039600023FB737B6893F83C30012B01D157
:102B7C000223B4E07B68012283F83C207B680222AC
:102B8C0083F83D207B681B689B68BB60BB6823F0A7
:102B9C007703BB60BB6823F47F43BB607B681B6817
:102BAC00BA689A603B681B68B3F5005F3ED0B3F51A
:102BBC00005F00F28780B3F5805F00F08680B3F58C
:102BCC00805F7FD8702B1AD0702B7BD8602B50D0A5
:102BDC00602B77D8502B3CD0502B73D8402B58D02F
:102BEC00402B6FD8302B64D0302B6BD8202B60D07F
:102BFC00202B67D8002B5CD0102B5AD062E07B685E
:102C0C0018683B6899683B685A683B68DB6800F059
:102C1C005EF97B681B689B68BB60BB6843F07703FD
:102C2C00BB607B681B68BA689A604FE07B68186869
:102C3C003B6899683B685A683B68DB6800F047F969
:102C4C007B681B689A687B681B6842F480429A60B8
:102C5C003CE07B6818683B6859683B68DB681A463F
:102C6C0000F0BEF87B681B685021184600F015F97F
:102C7C002CE07B6818683B6859683B68DB681A462F
:102C8C0000F0DCF87B681B686021184600F005F941
:102C9C001CE07B6818683B6859683B68DB681A461F
:102CAC0000F09EF87B681B684021184600F0F5F890
:102CBC000CE07B681A683B681B681946104600F0EC
:102CCC00ECF803E00123FB7300E000BF7B680122FA
:102CDC0083F83D207B68002283F83C20FB7B184660
:102CEC001037BD4680BD80B483B000AF786000BFA4
:102CFC000C37BD4680BC704780B483B000AF7860A1
:102D0C0000BF0C37BD4680BC704780B483B000AFA9
:102D1C00786000BF0C37BD4680BC704780B483B070
:102D2C0000AF786000BF0C37BD4680BC7047000018
:102D3C0080B485B000AF786039607B681B68FB603D
:102D4C007B68254A934207D07B68B3F1804F03D050
:102D5C007B68224A934208D1FB6823F07003FB6026
:102D6C003B685B68FA681343FB607B681A4A9342C2
:102D7C0007D07B68B3F1804F03D07B68174A93422E
:102D8C0008D1FB6823F44073FB603B68DB68FA688E
:102D9C001343FB60FB6823F080023B685B691343C1
:102DAC00FB607B68FA681A603B689A687B68DA6239
:102DBC003B681A687B689A627B68074A934203D126
:102DCC003B681A697B681A637B6801225A6100BFF1
:102DDC001437BD4680BC7047002C014000040040F5
:102DEC0080B487B000AFF860B9607A60FB681B6A8A
:102DFC007B61FB681B6A23F00102FB681A62FB68AB
:102E0C009B693B613B6923F0F0033B617B681B01D1
:102E1C003A6913433B617B6923F00A037B617A694E
:102E2C00BB6813437B61FB683A699A61FB687A69FA
:102E3C001A6200BF1C37BD4680BC704780B487B097
:102E4C0000AFF860B9607A60FB681B6A7B61FB6855
:102E5C001B6A23F01002FB681A62FB689B693B61DA
:102E6C003B6923F470433B617B681B033A69134352
:102E7C003B617B6923F0A0037B61BB681B017A6912
:102E8C0013437B61FB683A699A61FB687A691A6241
:102E9C0000BF1C37BD4680BC704780B485B000AF06
:102EAC00786039607B689B68FB60FB6823F070037B
:102EBC00FB603A68FB68134343F00703FB607B68D5
:102ECC00FA689A6000BF1437BD4680BC704780B466
:102EDC0087B000AFF860B9607A603B60FB689B68B4
:102EEC007B617B6923F47F437B613B681A027B68BF
:102EFC001A43BB6813437A6913437B61FB687A6995
:102F0C009A6000BF1C37BD4680BC704780B485B04A
:102F1C0000AF786039607B6893F83C30012B01D1AD
:102F2C00022341E07B68012283F83C207B6802226B
:102F3C0083F83D207B681B685B68FB607B681B68C3
:102F4C009B68BB60FB6823F07003FB603B681B68ED
:102F5C00FA681343FB607B681B68FA685A607B68ED
:102F6C001B68144A934209D07B681B68B3F1804FED
:102F7C0004D07B681B68104A93420CD1BB6823F0C9
:102F8C008003BB603B685B68BA681343BB607B68BB
:102F9C001B68BA689A607B68012283F83D207B68C5
:102FAC00002283F83C20002318461437BD4680BC11
:102FBC00704700BF002C01400004004080B483B077
:102FCC0000AF786000BF0C37BD4680BC704780B442
:102FDC0083B000AF786000BF0C37BD4680BC704733
:102FEC0070B500260C4D0D4C641BA410A64209D1E3
:102FFC0000F022F800260A4D0A4C641BA410A642CD
:10300C0005D170BD55F8043B98470136EEE755F8ED
:10301C00043B98470136F2E7803000088030000806
:10302C00803000088430000803460244934200D1EB
:10303C00704703F8011BF9E7F8B500BFF8BC08BCF2
:10304C009E467047F8B500BFF8BC08BC9E4670475A
:10305C00000000000000000001020304060708093C
:10306C0002030405060708090A0B0C0D0E0F1010BD
:04307C00010200004D
:043080003101000812
:043084000D01000832
:103088001E000000050000001900000001010100F9
:103098000101010001010100010101006400640057
:1030A800640000000024F4000A0000001000000082
:0430B8000100000013
:04000005080019AD29
:00000001FF
