:020000040800F2
:1000000000280020C9180008391700083F17000809
:10001000451700084B1700085117000800000000A2
:10002000000000000000000000000000571700085A
:1000300063170008000000006F1700087B17000816
:1000400011190008111900081119000811190008E8
:1000500011190008111900081119000811190008D8
:1000600011190008111900081119000811190008C8
:1000700011190008111900081119000811190008B8
:1000800011190008111900081119000811190008A8
:100090001119000811190008111900081119000898
:1000A0001119000811190008111900081119000888
:1000B0008917000811190008000000001119000834
:1000C00011190008000000000000000011190008CC
:1000D00000000000111900081119000800000000BC
:1000E000111900081119000811190008000000007A
:1000F0000000000000000000000000000000000000
:0C01000000000000000000005FF808F1A3
:10010C0010B5054C237833B9044B13B10448AFF345
:10011C0000800123237010BD280000200000000087
:10012C00602F000808B5034B1BB103490348AFF31C
:10013C00008008BD000000002C000020602F00088B
:10014C0080B584B000AF78607B68BD4A82FB031237
:10015C009210DB17D31AFB607A68B94B83FB02133E
:10016C009910D317C91A0B469B000B445B00D31A8A
:10017C00BB60FB68002B14D100220121B14801F0B7
:10018C00C6FE00220221AF4801F0C1FE002204216C
:10019C00AC4801F0BCFE00220821AA4801F0B7FED1
:1001AC00D6E0FB68012B14D101220121A54801F0F6
:1001BC00AEFE00220221A34801F0A9FE0022042178
:1001CC00A04801F0A4FE002208219E4801F09FFEE9
:1001DC00BEE0FB68022B14D100220121994801F0EA
:1001EC0096FE01220221974801F091FE0022042183
:1001FC00944801F08CFE00220821924801F087FE01
:10020C00A6E0FB68032B14D1012201218D4801F0DB
:10021C007EFE012202218B4801F079FE002204218E
:10022C00884801F074FE00220821864801F06FFE18
:10023C008EE0FB68042B14D100220121814801F0CF
:10024C0066FE002202217F4801F061FE012204219A
:10025C007C4801F05CFE002208217A4801F057FE30
:10026C0076E0FB68052B14D101220121754801F0C1
:10027C004EFE00220221734801F049FE01220421A6
:10028C00704801F044FE002208216E4801F03FFE48
:10029C005EE0FB68062B14D100220121694801F0B5
:1002AC0036FE01220221674801F031FE01220421B1
:1002BC00644801F02CFE00220821624801F027FE60
:1002CC0046E0FB68072B14D1012201215D4801F0A7
:1002DC001EFE012202215B4801F019FE01220421BD
:1002EC00584801F014FE00220821564801F00FFE78
:1002FC002EE0FB68082B14D100220121514801F09B
:10030C0006FE002202214F4801F001FE00220421CA
:10031C004C4801F0FCFD012208214A4801F0F7FD90
:10032C0016E0FB68092B13D101220121454801F08D
:10033C00EEFD00220221434801F0E9FD00220421D8
:10034C00404801F0E4FD012208213E4801F0DFFDA8
:10035C00BB68002B14D1002210213A4801F0D7FDC4
:10036C0000222021374801F0D2FD002240213548DF
:10037C0001F0CDFD00228021324801F0C8FDDAE009
:10038C00BB68012B14D1012210212E4801F0BFFDB6
:10039C00002220212B4801F0BAFD002240212948DF
:1003AC0001F0B5FD00228021264801F0B0FDC2E02D
:1003BC00BB68022B14D100221021224801F0A7FDAA
:1003CC00012220211F4801F0A2FD002240211D48DE
:1003DC0001F09DFD002280211A4801F098FDAAE051
:1003EC00BB68032B14D101221021164801F08FFD9C
:1003FC0001222021134801F08AFD002240211148DE
:10040C0001F085FD002280210E4801F080FD92E074
:10041C00BB68042B18D1002210210A4801F077FD8B
:10042C0000222021074801F072FD012240210548DD
:10043C0001F06DFD00228021024801F068FD7AE098
:10044C0067666666000C0140BB68052B14D101225F
:10045C0010213B4801F05BFD00222021384801F0BF
:10046C0056FD01224021364801F051FD0022802129
:10047C00334801F04CFD5EE0BB68062B14D1002222
:10048C0010212F4801F043FD012220212C4801F0BE
:10049C003EFD012240212A4801F039FD0022802135
:1004AC00274801F034FD46E0BB68072B14D101222C
:1004BC001021234801F02BFD01222021204801F0BE
:1004CC0026FD012240211E4801F021FD0022802141
:1004DC001B4801F01CFD2EE0BB68082B14D1002238
:1004EC001021174801F013FD00222021144801F0BF
:1004FC000EFD00224021124801F009FD012280214D
:10050C000F4801F004FD16E0BB68092B13D1012242
:10051C0010210B4801F0FBFC00222021084801F0BF
:10052C00F6FC00224021064801F0F1FC012280215A
:10053C00034801F0ECFC00BF1037BD4680BD00BF86
:10054C00000C014080B584B000AF78607B68BF4A76
:10055C0082FB03129210DB17D31AFB607A68BB4B39
:10056C0083FB02139910D317C91A0B469B000B443B
:10057C005B00D31ABB60FB68002B18D100224FF430
:10058C008071B34801F0C3FC00224FF40071B048F5
:10059C0001F0BDFC00224FF48061AD4801F0B7FCC6
:1005AC0000224FF40061AA4801F0B1FCFAE0FB68AC
:1005BC00012B18D101224FF48071A54801F0A7FC42
:1005CC0000224FF40071A24801F0A1FC00224FF46C
:1005DC0080619F4801F09BFC00224FF400619C4815
:1005EC0001F095FCDEE0FB68022B18D100224FF4E1
:1005FC008071974801F08BFC01224FF400719448F4
:10060C0001F085FC00224FF48061914801F07FFCE1
:10061C0000224FF400618E4801F079FCC2E0FB68C7
:10062C00032B18D101224FF48071894801F06FFC23
:10063C0001224FF40071864801F069FC00224FF44E
:10064C008061834801F063FC00224FF40061804814
:10065C0001F05DFCA6E0FB68042B18D100224FF4DE
:10066C0080717B4801F053FC00224FF400717848F4
:10067C0001F04DFC01224FF48061754801F047FCFC
:10068C0000224FF40061724801F041FC8AE0FB68E3
:10069C00052B18D101224FF480716D4801F037FC05
:1006AC0000224FF400716A4801F031FC01224FF432
:1006BC008061674801F02BFC00224FF40061644814
:1006CC0001F025FC6EE0FB68062B18D100224FF4DC
:1006DC0080715F4801F01BFC01224FF400715C48F3
:1006EC0001F015FC01224FF48061594801F00FFC18
:1006FC0000224FF40061564801F009FC52E0FB68FF
:10070C00072B18D101224FF48071514801F0FFFBE7
:10071C0001224FF400714E4801F0F9FB01224FF415
:10072C0080614B4801F0F3FB00224FF40061484814
:10073C0001F0EDFB36E0FB68082B18D100224FF4DA
:10074C008071434801F0E3FB00224FF400714048F4
:10075C0001F0DDFB00224FF480613D4801F0D7FB36
:10076C0001224FF400613A4801F0D1FB1AE0FB681A
:10077C00092B17D101224FF48071354801F0C7FBCA
:10078C0000224FF40071324801F0C1FB00224FF4FB
:10079C0080612F4801F0BBFB01224FF400612C4813
:1007AC0001F0B5FBBB68002B18D100224FF480512F
:1007BC00274801F0ACFB00224FF40051244801F013
:1007CC00A6FB00224FF48041214801F0A0FB00223F
:1007DC004FF400411E4801F09AFBFEE0BB68012B70
:1007EC0018D101224FF48051194801F090FB0022DE
:1007FC004FF40051164801F08AFB00224FF480415F
:10080C00134801F084FB00224FF40041104801F022
:10081C007EFBE2E0BB68022B1CD100224FF480511E
:10082C000B4801F074FB01224FF40051084801F011
:10083C006EFB00224FF48041054801F068FB00225A
:10084C004FF40041024801F062FBC6E06766666641
:10085C00000C0140BB68032B18D101224FF48051CE
:10086C00604801F054FB01224FF400515D4801F047
:10087C004EFB00224FF480415A4801F048FB002205
:10088C004FF40041574801F042FBA6E0BB68042B33
:10089C0018D100224FF48051524801F038FB00224D
:1008AC004FF400514F4801F032FB01224FF48041CC
:1008BC004C4801F02CFB00224FF40041494801F058
:1008CC0026FB8AE0BB68052B18D101224FF480511E
:1008DC00444801F01CFB00224FF40051414801F048
:1008EC0016FB01224FF480413E4801F010FB002220
:1008FC004FF400413B4801F00AFB6EE0BB68062B4D
:10090C0018D100224FF48051364801F000FB01222F
:10091C004FF40051334801F0FAFA01224FF48041B0
:10092C00304801F0F4FA00224FF400412D4801F058
:10093C00EEFA52E0BB68072B18D101224FF480511C
:10094C00284801F0E4FA01224FF40051254801F047
:10095C00DEFA01224FF48041224801F0D8FA00223D
:10096C004FF400411F4801F0D2FA36E0BB68082B67
:10097C0018D100224FF480511A4801F0C8FA002215
:10098C004FF40051174801F0C2FA00224FF4804195
:10099C00144801F0BCFA01224FF40041114801F057
:1009AC00B6FA1AE0BB68092B17D101224FF480511B
:1009BC000C4801F0ACFA00224FF40051094801F048
:1009CC00A6FA00224FF48041064801F0A0FA012259
:1009DC004FF40041034801F09AFA00BF1037BD46AE
:1009EC0080BD00BF000C014080B582B000AF7860C4
:1009FC007B68012B18D101224FF40061364801F0BD
:100A0C0086FA00224FF48051334801F080FA00221C
:100A1C004FF40051304801F07AFA00224FF4804133
:100A2C002D4801F074FA52E07B68022B18D1002299
:100A3C004FF40061284801F06AFA01224FF480510A
:100A4C00254801F064FA00224FF40051224801F0CD
:100A5C005EFA00224FF480411F4801F058FA36E04C
:100A6C007B68032B18D101224FF400611A4801F066
:100A7C004EFA01224FF48051174801F048FA002237
:100A8C004FF40051144801F042FA00224FF4804117
:100A9C00114801F03CFA1AE07B68042B17D10022B4
:100AAC004FF400610C4801F032FA00224FF48051EF
:100ABC00094801F02CFA01224FF40051064801F0CC
:100ACC0026FA00224FF48041034801F020FA00BFBF
:100ADC000837BD4680BD00BF0008014090B583B00B
:100AEC0000AF0023FB7187E0FA79FB794749895CF9
:100AFC00474AD154FB79022B1BD0022B24DC002B50
:100B0C0002D0012B0AD01FE0FC798021414801F072
:100B1C00E7F903461A463D4B1A5516E0FC794FF49B
:100B2C0080713C4801F0DCF903461A46374B1A55E4
:100B3C000BE0FC794FF40071364801F0D1F9034613
:100B4C001A46324B1A5500E000BFFB792F4AD25C93
:100B5C00FB792F49CB5C9A424BD1FB792C4AD25C66
:100B6C00FB792D49CB5C9A4214D0FA79FB79284950
:100B7C00895C294AD154FB79274AD35C002B38D1A4
:100B8C00FB79264A0021D154FB79254A642122F8AD
:100B9C0013102EE0FB79224A32F81320013A91B25D
:100BAC001F4A22F81310FB791D4A32F81330002B20
:100BBC001FD1FB79184AD35C002B0CD1FB79184A56
:100BCC00642122F81310FB79144A0121D154FB79CA
:100BDC00144A0121D154FB790F4AD35C012B08D163
:100BEC00FB790F4A642122F81310FB790D4A00217E
:100BFC00D154FB790133FB71FB79022B7FF674AF77
:100C0C0000BF00BF0C37BD4690BD00BF04000020E4
:100C1C0008000020000801400C000020000000200B
:100C2C00100000205000002080B485B000AF0346B7
:100C3C00FB71FB79022B01D900230DE0FB79094AEA
:100C4C00D35CFB73FB79074A0121D154FB7B002B4E
:100C5C000CBF01230023DBB218461437BD4680BC01
:100C6C00704700BF0000002080B485B000AF034681
:100C7C00FB71FB79022B01D9FF230DE0FB79094AAB
:100C8C00D35CFB73FB79074A0021D154FB7B012B0E
:100C9C000CBF01230023DBB218461437BD4680BCC1
:100CAC00704700BF5000002080B500AF00F02CFE54
:100CBC0000F012F800F098F800F04AF8054801F03E
:100CCC0085FD00F00BF900F01DFB00F0B5FB00F00A
:100CDC004DFCF6E75400002080B590B000AF07F152
:100CEC00180328220021184602F02CF93B1D002283
:100CFC001A605A609A60DA601A610223BB610123A0
:100D0C00BB621023FB6200237B6307F118031846B8
:100D1C0001F02EF90346002B01D000F0DAF80F2376
:100D2C007B600023BB600023FB6000233B6100233E
:100D3C007B613B1D0021184601F09CFB0346002BF8
:100D4C0001D000F0C6F800BF4037BD4680BD0000A2
:100D5C0080B586B000AF07F1080300221A605A6014
:100D6C009A60DA603B4600221A605A601D4B4FF0C5
:100D7C0080421A601B4B41F63F725A60194B00229D
:100D8C009A60184B0922DA60164B00221A61154B37
:100D9C0000229A61134801F0C9FC0346002B01D0D4
:100DAC0000F097F84FF48053BB6007F10803194625
:100DBC000C4801F05FFE0346002B01D000F089F8CF
:100DCC0000233B6000237B603B461946054802F03C
:100DDC002BF80346002B01D000F07BF800BF18372E
:100DEC00BD4680BD5400002080B586B000AF07F131
:100DFC00080300221A605A609A60DA60294B9B69DA
:100E0C00284A43F004039361264B9B6903F00403C7
:100E1C007B607B68234B9B69224A43F008039361F8
:100E2C00204B9B6903F008033B603B6800224FF6A4
:100E3C007E011D4801F06BF800224FF6FF711B4834
:100E4C0001F065F84FF67E03BB600123FB600023C5
:100E5C003B6102237B6107F108031946124800F03D
:100E6C00C3FE4FF46073BB600023FB6001233B6146
:100E7C0007F1080319460C4800F0B6FE4FF6FF7355
:100E8C00BB600123FB6000233B6102237B6107F104
:100E9C0008031946054800F0A7FE00BF1837BD46E9
:100EAC0080BD00BF0010024000080140000C014052
:100EBC0080B582B000AF78607B681B68B3F1804F5F
:100ECC0001D1FFF70BFE00F0B7FC00BF0837BD46A1
:100EDC0080BD80B400AF72B600BFFEE780B500AF36
:100EEC00894B1B680E2B00F2F68101A252F823F0FD
:100EFC00390F0008E3120008E3120008E31200089F
:100F0C00E3120008E3120008E3120008E3120008E1
:100F1C00E3120008E3120008E31200085D0F00085A
:100F2C00391000082D11000809120008774B1E22F9
:100F3C001A60774B19221A60734B0B221A604FF40C
:100F4C007A7000F02BFC46F2A81000F041FCCBE1CB
:100F5C00012202216F4800F0DAFF002204216D48C3
:100F6C0000F0D5FF002208216A4800F0D0FF0022D3
:100F7C001021684800F0CBFF00222021654800F0CA
:100F8C00C6FF01224021634800F0C1FF5F4B1B6884
:100F9C001846FFF7D5F85E4B1B681846FFF7D2FAD8
:100FAC000120FFF721FD5C4B1B68012B0DD14FF489
:100FBC007A7000F0F3FB554B1B68013B534A1360EE
:100FCC00534B1B68013B524A1360544B1B68012B5B
:100FDC0010D14D4B0C221A604C4B05221A604C4B15
:100FEC0005221A604FF47A7000F0D8FB41F2883079
:100FFC0000F0EEFB0020FFF717FE0346002B00F07D
:10100C006C81414B14221A60404B14221A60404BE5
:10101C0000221A604FF47A7000F0C0FB46F2A81060
:10102C0000F0D6FBFA2000F0EDFB56E10122022184
:10103C00384800F06CFF00220421364800F067FFAE
:10104C0000220821334800F062FF002210213148B1
:10105C0000F05DFF012220212E4800F058FF0022F5
:10106C0040212C4800F053FF284B1B681846FFF713
:10107C0067F8274B1B681846FFF764FA0120FFF747
:10108C00B3FC254B1B68012B0DD14FF47A7000F08B
:10109C0085FB1E4B1B68013B1C4A13601C4B1B68D9
:1010AC00013B1B4A13601D4B1B68012B10D1164BC7
:1010BC000D221A60154B19221A60154B1E221A604C
:1010CC004FF47A7000F06AFB46F2A81000F080FB37
:1010DC000020FFF7A9FD0346002B00F000810A4B0E
:1010EC0014221A60094B14221A60094B00221A6050
:1010FC004FF47A7000F052FB46F2A81000F068FB37
:10110C00FA2000F07FFBEAE04C00002044000020B5
:10111C004800002000080140A8000020AC0000207E
:10112C0000220221714800F0F2FE002204216F48D7
:10113C0000F0EDFE012208216C4800F0E8FE0122CF
:10114C0010216A4800F0E3FE00222021674800F0DD
:10115C00DEFE00224021654800F0D9FE644B1B687E
:10116C001846FEF7EDFF634B1B681846FFF7EAF9CC
:10117C000120FFF739FC604B1B68012B0DD14FF49C
:10118C007A7000F00BFB5A4B1B68013B584A1360FA
:10119C00584B1B68013B574A1360584B1B68012B7B
:1011AC0010D1574B0E221A60514B05221A60514B2D
:1011BC0005221A604FF47A7000F0F0FA41F2883090
:1011CC0000F006FB0020FFF72FFD0346002B00F07C
:1011DC0088804B4B14221A60454B14221A60454BE5
:1011EC0000221A604FF47A7000F0D8FA46F2A81078
:1011FC0000F0EEFAFA2000F005FB72E0002202216A
:10120C003A4800F084FE01220421384800F07FFEA9
:10121C0000220821354800F07AFE012210213348C3
:10122C0000F075FE00222021304800F070FE0022F4
:10123C0040212E4800F06BFE2D4B1B681846FEF724
:10124C007FFF2C4B1B681846FFF77CF90120FFF73A
:10125C00CBFB294B1B68012B0DD14FF47A7000F09E
:10126C009DFA234B1B68013B214A1360214B1B68E1
:10127C00013B204A1360214B1B68012B10D1204BE2
:10128C000B221A601A4B1E221A601A4B19221A6072
:10129C004FF47A7000F082FA46F2A81000F098FA37
:1012AC000020FFF7C1FC0346002B1CD0144B14226A
:1012BC001A600F4B14221A600E4B00221A604FF466
:1012CC007A7000F06BFA46F2A81000F081FAFA205E
:1012DC0000F098FA07E000BF06E000BF04E000BF92
:1012EC0002E000BF00E000BF00BF80BD000801406D
:1012FC004400002048000020A8000020AC00002082
:10130C004C00002080B500AF444B1B68142B40F000
:10131C008280434B1B681846FEF712FF414B1B683B
:10132C001846FFF70FF90220FFF75EFB3E4B1B68D8
:10133C00012B1ED102213D4800F001FE10213B483B
:10134C0000F0FDFD00220421384800F0E0FD0022F1
:10135C000821364800F0DBFD00222021334800F044
:10136C00D6FD00224021314800F0D1FDFA2000F0DA
:10137C0049FA2F4B1B68012B08D1294B1B68013BE9
:10138C00274A13604FF47A7000F008FA0020FFF738
:10139C004BFC0346002B03D1264B1B68012B13D1AE
:1013AC001E4B1E221A601E4B14221A601D4B00226B
:1013BC001A604FF47A7000F0F1F946F2A81000F0C0
:1013CC0007FAFA2000F01EFA0120FFF72DFC034665
:1013DC00002B05D10120FFF747FC0346002B04D05E
:1013EC00104B1B6801330F4A13600220FFF71CFCE3
:1013FC000346002B0FD00B4B1B68094A1360094B9B
:10140C001B684FF47A7202FB03F3184600F0E0F904
:10141C00044B00221A6000BF80BD00BF4C000020AE
:10142C004400002048000020B000002000080140CB
:10143C00A8000020AC00002080B500AF444B1B6816
:10144C001E2B40F08280434B1B681846FEF778FE3B
:10145C00414B1B681846FFF775F80320FFF7C4FAD9
:10146C003E4B1B68012B1ED104213D4800F067FD4B
:10147C0020213B4800F063FD00220221384800F097
:10148C0046FD00220821364800F041FD00221021C3
:10149C00334800F03CFD00224021314800F037FD7C
:1014AC00FA2000F0AFF92F4B1B68012B08D1294B08
:1014BC001B68013B274A13604FF47A7000F06EF9F9
:1014CC000020FFF7B1FB0346002B03D1264B1B6812
:1014DC00012B13D11E4B28221A601E4B14221A60AA
:1014EC001D4B00221A604FF47A7000F057F946F247
:1014FC00A81000F06DF9FA2000F084F90120FFF734
:10150C0093FB0346002B05D10120FFF7ADFB0346EF
:10151C00002B04D0104B1B6801330F4A13600220C0
:10152C00FFF782FB0346002B0FD00B4B1B68094ABD
:10153C001360094B1B684FF47A7202FB03F31846D5
:10154C0000F046F9044B00221A6000BF80BD00BFBA
:10155C004C0000204400002048000020B000002077
:10156C0000080140A8000020AC00002080B500AFAE
:10157C00444B1B68282B40F08280434B1B68184659
:10158C00FEF7DEFD414B1B681846FEF7DBFF04201F
:10159C00FFF72AFA3E4B1B68012B1ED108213D4850
:1015AC0000F0CDFC40213B4800F0C9FC0022042196
:1015BC00384800F0ACFC00220221364800F0A7FCB1
:1015CC0000222021334800F0A2FC002210213148D7
:1015DC0000F09DFCFA2000F015F92F4B1B68012B35
:1015EC0008D1294B1B68013B274A13604FF47A70D2
:1015FC0000F0D4F80020FFF717FB0346002B03D1B3
:10160C00264B1B68012B13D11E4B0B221A601E4B51
:10161C0014221A601D4B00221A604FF47A7000F0ED
:10162C00BDF846F2A81000F0D3F8FA2000F0EAF862
:10163C000120FFF7F9FA0346002B05D10120FFF733
:10164C0013FB0346002B04D0104B1B6801330F4ACD
:10165C0013600220FFF7E8FA0346002B0FD00B4B68
:10166C001B68094A1360094B1B684FF47A7202FB22
:10167C0003F3184600F0ACF8044B00221A6000BFCC
:10168C0080BD00BF4C00002044000020480000201A
:10169C00B000002000080140A8000020AC00002091
:1016AC0080B483B000AF0E4B9B690D4A43F001032D
:1016BC0093610B4B9B6903F001037B607B68084BC8
:1016CC00DB69074A43F08053D361054BDB6903F0B8
:1016DC0080533B603B6800BF0C37BD4680BC7047F5
:1016EC000010024080B584B000AF78607B681B6846
:1016FC00B3F1804F13D10C4BDB690B4A43F0010360
:10170C00D361094BDB6903F00103FB60FB6800222A
:10171C0000211C2000F031FA1C2000F04AFA00BF16
:10172C001037BD4680BD00BF0010024080B400AF32
:10173C00FEE780B400AFFEE780B400AFFEE780B4F4
:10174C0000AFFEE780B400AFFEE780B400AF00BF8F
:10175C00BD4680BC704780B400AF00BFBD4680BCA6
:10176C00704780B400AF00BFBD4680BC704780B5E9
:10177C0000AF00F00FF900BF80BD000080B500AFD6
:10178C00024801F06FF800BF80BD00BF540000207C
:10179C0080B400AF00BFBD4680BC704780B483B03E
:1017AC0000AF7860074B1B687A6892FBF3F3064A2C
:1017BC001360064B00221A6000BF0C37BD4680BC7C
:1017CC00704700BF1C0000209C000020A8000020D7
:1017DC0080B483B000AF7860074B1B687A6892FBCB
:1017EC00F3F3064A1360064B00221A6000BF0C3755
:1017FC00BD4680BC704700BF1C000020A00000202C
:10180C00AC00002080B483B000AF7860074B1B683D
:10181C007A6892FBF3F3064A1360064B00221A60B7
:10182C0000BF0C37BD4680BC704700BF1C000020B9
:10183C00A4000020B000002080B400AF194B1B683E
:10184C00002B0BDD174B1B68013B164A1360154B25
:10185C001B68002B02D1144B01221A60134B1B681E
:10186C00002B0BDD114B1B68013B104A13600F4B17
:10187C001B68002B02D10E4B01221A600D4B1B680A
:10188C00002B0BDD0B4B1B68013B0A4A1360094B09
:10189C001B68002B02D1084B01221A6000BFBD4609
:1018AC0080BC70479C000020A8000020A0000020F5
:1018BC00AC000020A4000020B0000020FFF768FF5F
:1018CC000B480C490C4A002302E0D458C450043392
:1018DC00C4188C42F9D3094A094C002301E0136067
:1018EC000432A242FBD301F009FBFFF7DDF970478C
:1018FC000000002028000020A42F00082800002051
:10190C00B8000020FEE7000080B500AF084B1B6854
:10191C00074A43F010031360032000F023F90F2053
:10192C0000F008F8FFF7BCFE0023184680BD00BF8E
:10193C000020024080B582B000AF7860124B1A686C
:10194C00124B1B7819464FF47A73B3FBF1F3B2FBCD
:10195C00F3F3184600F03BF90346002B01D00123AA
:10196C000EE07B680F2B0AD8002279684FF0FF300D
:10197C0000F003F9064A7B681360002300E00123A2
:10198C0018460837BD4680BD1800002024000020F2
:10199C002000002080B400AF054B1B781A46054B85
:1019AC001B681344034A136000BFBD4680BC7047DC
:1019BC0024000020B400002080B400AF024B1B6850
:1019CC001846BD4680BC7047B400002080B485B07A
:1019DC0000AF78607B6803F00703FB600C4BDB689F
:1019EC00BB60BA684FF6FF031340BB60FB681A027A
:1019FC00BB68134343F0BF6343F40033BB60044A3A
:101A0C00BB68D36000BF1437BD4680BC704700BFB5
:101A1C0000ED00E080B400AF044BDB681B0A03F060
:101A2C0007031846BD4680BC704700BF00ED00E0C0
:101A3C0080B483B000AF0346FB7197F90730002BDD
:101A4C000BDBFB7903F01F02064997F907305B09A2
:101A5C00012000FA02F241F8232000BF0C37BD46EA
:101A6C0080BC704700E100E080B483B000AF034657
:101A7C003960FB7197F90730002B0ADB3B68DAB24F
:101A8C000C4997F907301201D2B20B4483F80023AA
:101A9C000AE03B68DAB20849FB7903F00F03043B18
:101AAC001201D2B20B441A7600BF0C37BD4680BC73
:101ABC00704700BF00E100E000ED00E080B489B0A9
:101ACC0000AFF860B9607A60FB6803F00703FB6154
:101ADC00FB69C3F10703042B28BF0423BB61FB691B
:101AEC000433062B02D9FB69033B00E000237B6126
:101AFC004FF0FF32BB6902FA03F3DA43BB681A40BA
:101B0C007B699A404FF0FF317B6901FA03F3D943AB
:101B1C007B680B40134318462437BD4680BC704786
:101B2C0080B582B000AF78607B68013BB3F1807FF9
:101B3C0001D301230FE00A4A7B68013B53600F215C
:101B4C004FF0FF30FFF790FF054B00229A60044BDB
:101B5C0007221A60002318460837BD4680BD00BF17
:101B6C0010E000E080B582B000AF78607868FFF7D5
:101B7C002DFF00BF0837BD4680BD80B586B000AFD5
:101B8C000346B9607A60FB7300237B61FFF742FF69
:101B9C0078617A68B9687869FFF790FF024697F91F
:101BAC000F3011461846FFF75FFF00BF1837BD46D0
:101BBC0080BD80B582B000AF0346FB7197F907304A
:101BCC001846FFF735FF00BF0837BD4680BD80B50E
:101BDC0082B000AF78607868FFF7A2FF0346184622
:101BEC000837BD4680BD000080B48BB000AF786074
:101BFC00396000237B6200233B6261E101227B6A36
:101C0C0002FA03F3FB613B681B68FA691340BB6182
:101C1C00BA69FB699A4240F050813B685B68974A0D
:101C2C0093425ED0954A934275D8954A934258D0C8
:101C3C00934A93426FD8934A934252D0914A93421B
:101C4C0069D8914A93424CD08F4A934263D88F4AB9
:101C5C00934246D08D4A93425DD8122B2AD8122B30
:101C6C0059D801A252F823F0EF1C0008C91C000837
:101C7C00DB1C00081D1D0008231D0008231D000887
:101C8C00231D0008231D0008231D0008231D000828
:101C9C00231D0008231D0008231D0008231D000818
:101CAC00231D0008231D0008231D0008D11C00085B
:101CBC00E51C0008764A934213D02CE03B68DB68A5
:101CCC003B6229E03B68DB6804333B6224E03B6801
:101CDC00DB6808333B621FE03B68DB680C333B621C
:101CEC001AE03B689B68002B02D104233B6213E093
:101CFC003B689B68012B05D108233B627B68FA6922
:101D0C001A6109E008233B627B68FA695A6103E0B7
:101D1C0000233B6200E000BFBB69FF2B01D87B684E
:101D2C0001E07B6804337B61BB69FF2B02D87B6AC3
:101D3C009B0002E07B6A083B9B003B617B691A6855
:101D4C000F213B6901FA03F3DB431A40396A3B6903
:101D5C0001FA03F31A437B691A603B685B6803F072
:101D6C008053002B00F0A9804A4B9B69494A43F0F1
:101D7C0001039361474B9B6903F00103BB60BB6894
:101D8C00454A7B6A9B08023352F82330FB607B6A1E
:101D9C0003F003039B000F2202FA03F3DB43FA6800
:101DAC001340FB607B683D4A93420DD07B683C4AF4
:101DBC00934207D07B683B4A934201D1022304E053
:101DCC00032302E0012300E000237A6A02F00302FD
:101DDC0092009340FA681343FB602F497B6A9B087F
:101DEC000233FA6841F823203B685B6803F48013E4
:101DFC00002B06D02C4B9A682B49BB6913438B6084
:101E0C0006E0294B9A68BB69DB43274913408B607A
:101E1C003B685B6803F40013002B06D0224BDA6896
:101E2C002149BB691343CB6006E01F4BDA68BB69E1
:101E3C00DB431D491340CB603B685B6803F4003304
:101E4C00002B06D0184B5A681749BB6913434B60DB
:101E5C0006E0154B5A68BB69DB43134913404B60D2
:101E6C003B685B6803F48033002B1FD00E4B1A6861
:101E7C000D49BB6913430B601FE000BF000032101B
:101E8C000000311000002210000021100000121080
:101E9C000000111000100240000001400008014039
:101EAC00000C014000100140000401400B4B1A686B
:101EBC00BB69DB43094913400B607B6A01337B62CE
:101ECC003B681A687B6A22FA03F3002B7FF496AE08
:101EDC0000BF00BF2C37BD4680BC704700040140DA
:101EEC0080B485B000AF78600B467B807B689A68C5
:101EFC007B881340002B02D00123FB7301E00023ED
:101F0C00FB73FB7B18461437BD4680BC704780B40E
:101F1C0083B000AF78600B467B8013467B707B7878
:101F2C00002B03D07A887B681A6103E07B881A0443
:101F3C007B681A6100BF0C37BD4680BC704780B40B
:101F4C0085B000AF78600B467B807B68DB68FB60FC
:101F5C007A88FB6813401A04FB68D9437B880B40D2
:101F6C001A437B681A6100BF1437BD4680BC7047AA
:101F7C0080B586B000AF78607B68002B01D101235F
:101F8C0072E27B681B6803F00103002B00F0878072
:101F9C00924B5B6803F00C03042B0CD08F4B5B68EB
:101FAC0003F00C03082B12D18C4B5B6803F48033C9
:101FBC00B3F5803F0BD1894B1B6803F40033002B26
:101FCC006CD07B685B68002B68D101234CE27B688A
:101FDC005B68B3F5803F06D1804B1B687F4A43F4A6
:101FEC00803313602EE07B685B68002B0CD17B4B3D
:101FFC001B687A4A23F480331360784B1B68774A4A
:10200C0023F4802313601DE07B685B68B3F5A02F7D
:10201C000CD1724B1B68714A43F4802313606F4BD5
:10202C001B686E4A43F4803313600BE06B4B1B68E8
:10203C006A4A23F480331360684B1B68674A23F4A5
:10204C00802313607B685B68002B13D0FFF7B4FC14
:10205C00386108E0FFF7B0FC02463B69D31A642BE9
:10206C0001D9032300E25D4B1B6803F40033002B02
:10207C00F0D014E0FFF7A0FC386108E0FFF79CFCFF
:10208C0002463B69D31A642B01D90323ECE1534B71
:10209C001B6803F40033002BF0D100E000BF7B6819
:1020AC001B6803F00203002B63D04C4B5B6803F0FE
:1020BC000C03002B0BD0494B5B6803F00C03082B73
:1020CC001CD1464B5B6803F48033002B16D1434B79
:1020DC001B6803F00203002B05D07B681B69012BE6
:1020EC0001D00123C0E13D4B1B6823F0F8027B6853
:1020FC005B69DB00394913430B603AE07B681B6971
:10210C00002B20D0364B01221A60FFF755FC3861AA
:10211C0008E0FFF751FC02463B69D31A022B01D9A8
:10212C000323A1E12D4B1B6803F00203002BF0D01D
:10213C002A4B1B6823F0F8027B685B69DB0027499C
:10214C0013430B6015E0264B00221A60FFF734FC9A
:10215C00386108E0FFF730FC02463B69D31A022BCA
:10216C0001D9032380E11D4B1B6803F00203002BF4
:10217C00F0D17B681B6803F00803002B3AD07B6816
:10218C009B69002B19D0174B01221A60FFF714FC26
:10219C00386108E0FFF710FC02463B69D31A022BAA
:1021AC0001D9032360E10D4B5B6A03F00203002BA2
:1021BC00F0D0012000F09CFA1CE00A4B00221A60BF
:1021CC00FFF7FAFB38610FE0FFF7F6FB02463B69BD
:1021DC00D31A022B08D9032346E100BF001002409A
:1021EC000000424280044242924B5B6A03F00203BD
:1021FC00002BE9D17B681B6803F00403002B00F073
:10220C00A6800023FB758B4BDB6903F08053002BFE
:10221C000DD1884BDB69874A43F08053D361854BE2
:10222C00DB6903F08053BB60BB680123FB75824BF9
:10223C001B6803F48073002B18D17F4B1B687E4AFC
:10224C0043F480731360FFF7B7FB386108E0FFF7C6
:10225C00B3FB02463B69D31A642B01D9032303E178
:10226C00754B1B6803F48073002BF0D07B68DB6824
:10227C00012B06D16F4B1B6A6E4A43F001031362AC
:10228C002DE07B68DB68002B0CD16A4B1B6A694A1A
:10229C0023F001031362674B1B6A664A23F00403A5
:1022AC0013621CE07B68DB68052B0CD1614B1B6A4D
:1022BC00604A43F0040313625E4B1B6A5D4A43F0B1
:1022CC00010313620BE05B4B1B6A5A4A23F00103B8
:1022DC001362584B1B6A574A23F0040313627B6842
:1022EC00DB68002B15D0FFF767FB38610AE0FFF7BE
:1022FC0063FB02463B69D31A41F28832934201D9FF
:10230C000323B1E04B4B1B6A03F00203002BEED00E
:10231C0014E0FFF751FB38610AE0FFF74DFB024672
:10232C003B69D31A41F28832934201D903239BE0D3
:10233C00404B1B6A03F00203002BEED1FB7D012BFB
:10234C0005D13C4BDB693B4A23F08053D3617B685E
:10235C00DB69002B00F08780364B5B6803F00C03C5
:10236C00082B61D07B68DB69022B46D1334B0022F2
:10237C001A60FFF721FB386108E0FFF71DFB0246EE
:10238C003B69D31A022B01D903236DE0294B1B683F
:10239C0003F00073002BF0D17B681B6AB3F5803F10
:1023AC0008D1244B5B6823F400327B689B6821497D
:1023BC0013434B601F4B5B6823F474127B68196AE0
:1023CC007B685B6A0B431B4913434B601B4B01221D
:1023DC001A60FFF7F1FA386108E0FFF7EDFA0246F0
:1023EC003B69D31A022B01D903233DE0114B1B6827
:1023FC0003F00073002BF0D035E0104B00221A6074
:10240C00FFF7DAFA386108E0FFF7D6FA02463B69C3
:10241C00D31A022B01D9032326E0064B1B6803F0C9
:10242C000073002BF0D11EE07B68DB69012B07D118
:10243C00012319E00010024000700040600042428D
:10244C000B4B5B68FB60FB6803F480327B681B6A98
:10245C009A4206D1FB6803F470127B685B6A9A425D
:10246C0001D0012300E0002318461837BD4680BD7B
:10247C000010024080B584B000AF786039607B6892
:10248C00002B01D10123D0E06A4B1B6803F007033A
:10249C003A689A4210D9674B1B6823F007026549CA
:1024AC003B6813430B60634B1B6803F007033A68EC
:1024BC009A4201D00123B8E07B681B6803F0020349
:1024CC00002B20D07B681B6803F00403002B05D085
:1024DC00594B5B68584A43F4E06353607B681B6854
:1024EC0003F00803002B05D0534B5B68524A43F4AE
:1024FC0060535360504B5B6823F0F0027B689B6821
:10250C004D4913434B607B681B6803F00103002BA0
:10251C0040D07B685B68012B07D1474B1B6803F4E9
:10252C000033002B15D101237FE07B685B68022B05
:10253C0007D1414B1B6803F00073002B09D1012319
:10254C0073E03D4B1B6803F00203002B01D1012308
:10255C006BE0394B5B6823F003027B685B683649A0
:10256C0013434B60FFF728FAF8600AE0FFF724FAF0
:10257C000246FB68D31A41F28832934201D90323F5
:10258C0053E02D4B5B6803F00C027B685B689B008F
:10259C009A42EBD1274B1B6803F007033A689A4227
:1025AC0010D2244B1B6823F0070222493B681343CB
:1025BC000B60204B1B6803F007033A689A4201D06A
:1025CC00012332E07B681B6803F00403002B08D066
:1025DC00194B5B6823F4E0627B68DB681649134394
:1025EC004B607B681B6803F00803002B09D0124B6F
:1025FC005B6823F460527B681B69DB000E49134354
:10260C004B6000F021F802460B4B5B681B0903F092
:10261C000F030A49CB5C22FA03F3094A1360094BF6
:10262C001B681846FFF786F9002318461037BD467D
:10263C0080BD00BF0020024000100240782F00082F
:10264C00180000202000002080B487B000AF0023C9
:10265C00FB600023BB6000237B6100237B600023B5
:10266C003B611E4B5B68FB60FB6803F00C03042BA7
:10267C0002D0082B03D027E0194B3B6127E0FB6805
:10268C009B0C03F00F03174AD35C7B60FB6803F4CD
:10269C008033002B10D0114B5B685B0C03F00103F3
:1026AC00114AD35CBB607B680D4A03FB02F2BB682A
:1026BC00B2FBF3F37B6104E07B680C4A02FB03F38F
:1026CC007B617B693B6102E0054B3B6100BF3B6971
:1026DC0018461C37BD4680BC704700BF0010024036
:1026EC0000127A00882F0008982F000800093D007E
:1026FC0080B485B000AF78600A4B1B680A4AA2FB15
:10270C0003235B0A7A6802FB03F3FB6000BFFB68E0
:10271C005A1EFA60002BF9D100BF00BF1437BD461A
:10272C0080BC704718000020D34D621080B582B079
:10273C0000AF78607B68002B01D1012341E07B68FE
:10274C0093F83D30DBB2002B06D17B68002283F876
:10275C003C207868FEF7C6FF7B68022283F83D2098
:10276C007B681A687B6804331946104600F06EFAD1
:10277C007B68012283F846207B68012283F83E2087
:10278C007B68012283F83F207B68012283F840207C
:10279C007B68012283F841207B68012283F8422068
:1027AC007B68012283F843207B68012283F8442054
:1027BC007B68012283F845207B68012283F83D2049
:1027CC00002318460837BD4680BD000080B485B094
:1027DC0000AF78607B6893F83D30DBB2012B01D001
:1027EC00012335E07B68022283F83D207B681B685F
:1027FC00DA687B681B6842F00102DA607B681B6850
:10280C00164A934209D07B681B68B3F1804F04D001
:10281C007B681B68124A934211D17B681B689B68CA
:10282C0003F00703FB60FB68062B10D07B681B686A
:10283C001A687B681B6842F001021A6007E07B682B
:10284C001B681A687B681B6842F001021A6000233F
:10285C0018461437BD4680BC704700BF002C0140A1
:10286C000004004080B582B000AF78607B681B68C4
:10287C001B6903F00203022B22D17B681B68DB6807
:10288C0003F00203022B1BD17B681B686FF0020262
:10289C001A617B6801221A777B681B689B6903F0BD
:1028AC000303002B03D0786800F0B4F905E07868D6
:1028BC0000F0A7F9786800F0B6F97B6800221A7767
:1028CC007B681B681B6903F00403042B22D17B6813
:1028DC001B68DB6803F00403042B1BD17B681B68AB
:1028EC006FF004021A617B6802221A777B681B68FE
:1028FC009B6903F44073002B03D0786800F08AF9CD
:10290C0005E0786800F07DF9786800F08CF97B6858
:10291C0000221A777B681B681B6903F00803082BDD
:10292C0022D17B681B68DB6803F00803082B1BD1E2
:10293C007B681B686FF008021A617B6804221A77A7
:10294C007B681B68DB6903F00303002B03D07868FA
:10295C0000F060F905E0786800F053F9786800F051
:10296C0062F97B6800221A777B681B681B6903F08D
:10297C001003102B22D17B681B68DB6803F010035B
:10298C00102B1BD17B681B686FF010021A617B68DF
:10299C0008221A777B681B68DB6903F44073002BF1
:1029AC0003D0786800F036F905E0786800F029F972
:1029BC00786800F038F97B6800221A777B681B680E
:1029CC001B6903F00103012B0ED17B681B68DB68CC
:1029DC0003F00103012B07D17B681B686FF0010228
:1029EC001A617868FEF764FA7B681B681B6903F050
:1029FC008003802B0ED17B681B68DB6803F080039F
:102A0C00802B07D17B681B686FF080021A61786895
:102A1C0000F06BFA7B681B681B6903F04003402BCA
:102A2C000ED17B681B68DB6803F04003402B07D199
:102A3C007B681B686FF040021A61786800F0FCF844
:102A4C007B681B681B6903F02003202B0ED17B686D
:102A5C001B68DB6803F02003202B07D17B681B6805
:102A6C006FF020021A61786800F036FA00BF083760
:102A7C00BD4680BD80B584B000AF7860396000235E
:102A8C00FB737B6893F83C30012B01D10223B4E03B
:102A9C007B68012283F83C207B68022283F83D206E
:102AAC007B681B689B68BB60BB6823F07703BB60CB
:102ABC00BB6823F47F43BB607B681B68BA689A6071
:102ACC003B681B68B3F5005F3ED0B3F5005F00F2C6
:102ADC008780B3F5805F00F08680B3F5805F7FD888
:102AEC00702B1AD0702B7BD8602B50D0602B77D8E2
:102AFC00502B3CD0502B73D8402B58D0402B6FD838
:102B0C00302B64D0302B6BD8202B60D0202B67D887
:102B1C00002B5CD0102B5AD062E07B6818683B68A5
:102B2C0099683B685A683B68DB6800F05EF97B6823
:102B3C001B689B68BB60BB6843F07703BB607B681A
:102B4C001B68BA689A604FE07B6818683B689968A4
:102B5C003B685A683B68DB6800F047F97B681B6888
:102B6C009A687B681B6842F480429A603CE07B6800
:102B7C0018683B6859683B68DB681A4600F0BEF879
:102B8C007B681B685021184600F015F92CE07B6817
:102B9C0018683B6859683B68DB681A4600F0DCF83B
:102BAC007B681B686021184600F005F91CE07B6807
:102BBC0018683B6859683B68DB681A4600F09EF859
:102BCC007B681B684021184600F0F5F80CE07B6828
:102BDC001A683B681B681946104600F0ECF803E0D5
:102BEC000123FB7300E000BF7B68012283F83D20CA
:102BFC007B68002283F83C20FB7B18461037BD46CF
:102C0C0080BD80B483B000AF786000BF0C37BD4688
:102C1C0080BC704780B483B000AF786000BF0C37C5
:102C2C00BD4680BC704780B483B000AF786000BFF5
:102C3C000C37BD4680BC704780B483B000AF786061
:102C4C0000BF0C37BD4680BC7047000080B485B017
:102C5C0000AF786039607B681B68FB607B68254A35
:102C6C00934207D07B68B3F1804F03D07B68224A34
:102C7C00934208D1FB6823F07003FB603B685B68F0
:102C8C00FA681343FB607B681A4A934207D07B684F
:102C9C00B3F1804F03D07B68174A934208D1FB688D
:102CAC0023F44073FB603B68DB68FA681343FB60FA
:102CBC00FB6823F080023B685B691343FB607B6815
:102CCC00FA681A603B689A687B68DA623B681A6833
:102CDC007B689A627B68074A934203D13B681A6906
:102CEC007B681A637B6801225A6100BF1437BD46AA
:102CFC0080BC7047002C01400004004080B487B0B9
:102D0C0000AFF860B9607A60FB681B6A7B61FB6896
:102D1C001B6A23F00102FB681A62FB689B693B612A
:102D2C003B6923F0F0033B617B681B013A69134359
:102D3C003B617B6923F00A037B617A69BB681343AF
:102D4C007B61FB683A699A61FB687A691A6200BF19
:102D5C001C37BD4680BC704780B487B000AFF860AC
:102D6C00B9607A60FB681B6A7B61FB681B6A23F0A5
:102D7C001002FB681A62FB689B693B613B6923F498
:102D8C0070433B617B681B033A6913433B617B696E
:102D9C0023F0A0037B61BB681B017A6913437B6141
:102DAC00FB683A699A61FB687A691A6200BF1C3742
:102DBC00BD4680BC704780B485B000AF7860396088
:102DCC007B689B68FB60FB6823F07003FB603A68D0
:102DDC00FB68134343F00703FB607B68FA689A6057
:102DEC0000BF1437BD4680BC704780B487B000AFBD
:102DFC00F860B9607A603B60FB689B687B617B69BB
:102E0C0023F47F437B613B681A027B681A43BB68DF
:102E1C0013437A6913437B61FB687A699A6000BF3C
:102E2C001C37BD4680BC704780B485B000AF78605D
:102E3C0039607B6893F83C30012B01D1022341E0CF
:102E4C007B68012283F83C207B68022283F83D20BA
:102E5C007B681B685B68FB607B681B689B68BB605E
:102E6C00FB6823F07003FB603B681B68FA68134334
:102E7C00FB607B681B68FA685A607B681B68144AA5
:102E8C00934209D07B681B68B3F1804F04D07B68F8
:102E9C001B68104A93420CD1BB6823F08003BB60C3
:102EAC003B685B68BA681343BB607B681B68BA6895
:102EBC009A607B68012283F83D207B68002283F8AE
:102ECC003C20002318461437BD4680BC704700BF19
:102EDC00002C01400004004080B483B000AF786047
:102EEC0000BF0C37BD4680BC704780B483B000AFC8
:102EFC00786000BF0C37BD4680BC704770B50026AB
:102F0C000C4D0D4C641BA410A64209D100F022F804
:102F1C0000260A4D0A4C641BA410A64205D170BDB4
:102F2C0055F8043B98470136EEE755F8043B9847B3
:102F3C000136F2E79C2F00089C2F00089C2F0008FC
:102F4C00A02F000803460244934200D1704703F8B7
:102F5C00011BF9E7F8B500BFF8BC08BC9E467047EA
:0C2F6C00F8B500BFF8BC08BC9E467047DA
:102F78000000000000000000010203040607080921
:102F880002030405060708090A0B0C0D0E0F1010A2
:042F98000102000032
:042F9C0031010008F7
:042FA0000D01000817
:102FA4000101010001010100010101000101010011
:102FB40064006400640000000024F4000A000000BF
:082FC4001000000001000000F4
:04000005080018C90E
:00000001FF
