:020000040800F2
:100000000028002029150008991300089F130008F4
:10001000A5130008AB130008B1130008000000008E
:10002000000000000000000000000000B7130008FE
:10003000C313000800000000CF130008DB13000802
:100040007115000871150008711500087115000878
:100050007115000871150008711500087115000868
:100060007115000871150008711500087115000858
:100070007115000871150008711500087115000848
:100080007115000871150008711500087115000838
:100090007115000871150008711500087115000828
:1000A0007115000871150008711500087115000818
:1000B000E913000871150008000000007115000820
:1000C0007115000800000000000000007115000814
:1000D0000000000071150008711500080000000004
:1000E0007115000871150008711500080000000066
:1000F0000000000000000000000000000000000000
:0C01000000000000000000005FF808F1A3
:10010C0010B5054C237833B9044B13B10448AFF345
:10011C0000800123237010BD280000200000000087
:10012C00902B000808B5034B1BB103490348AFF3F0
:10013C00008008BD000000002C000020902B00085F
:10014C0080B584B000AF78607B68BD4A82FB031237
:10015C009210DB17D31AFB607A68B94B83FB02133E
:10016C009910D317C91A0B469B000B445B00D31A8A
:10017C00BB60FB68002B14D100220121B14801F0B7
:10018C00F6FC00220221AF4801F0F1FC0022042110
:10019C00AC4801F0ECFC00220821AA4801F0E7FC75
:1001AC00D6E0FB68012B14D101220121A54801F0F6
:1001BC00DEFC00220221A34801F0D9FC002204211C
:1001CC00A04801F0D4FC002208219E4801F0CFFC8D
:1001DC00BEE0FB68022B14D100220121994801F0EA
:1001EC00C6FC01220221974801F0C1FC0022042127
:1001FC00944801F0BCFC00220821924801F0B7FCA5
:10020C00A6E0FB68032B14D1012201218D4801F0DB
:10021C00AEFC012202218B4801F0A9FC0022042132
:10022C00884801F0A4FC00220821864801F09FFCBC
:10023C008EE0FB68042B14D100220121814801F0CF
:10024C0096FC002202217F4801F091FC012204213E
:10025C007C4801F08CFC002208217A4801F087FCD4
:10026C0076E0FB68052B14D101220121754801F0C1
:10027C007EFC00220221734801F079FC012204214A
:10028C00704801F074FC002208216E4801F06FFCEC
:10029C005EE0FB68062B14D100220121694801F0B5
:1002AC0066FC01220221674801F061FC0122042155
:1002BC00644801F05CFC00220821624801F057FC04
:1002CC0046E0FB68072B14D1012201215D4801F0A7
:1002DC004EFC012202215B4801F049FC0122042161
:1002EC00584801F044FC00220821564801F03FFC1C
:1002FC002EE0FB68082B14D100220121514801F09B
:10030C0036FC002202214F4801F031FC002204216E
:10031C004C4801F02CFC012208214A4801F027FC32
:10032C0016E0FB68092B13D101220121454801F08D
:10033C001EFC00220221434801F019FC002204217A
:10034C00404801F014FC012208213E4801F00FFC4A
:10035C00BB68002B14D1002210213A4801F007FC95
:10036C0000222021374801F002FC002240213548B0
:10037C0001F0FDFB00228021324801F0F8FBDAE0AD
:10038C00BB68012B14D1012210212E4801F0EFFB88
:10039C00002220212B4801F0EAFB002240212948B1
:1003AC0001F0E5FB00228021264801F0E0FBC2E0D1
:1003BC00BB68022B14D100221021224801F0D7FB7C
:1003CC00012220211F4801F0D2FB002240211D48B0
:1003DC0001F0CDFB002280211A4801F0C8FBAAE0F5
:1003EC00BB68032B14D101221021164801F0BFFB6E
:1003FC0001222021134801F0BAFB002240211148B0
:10040C0001F0B5FB002280210E4801F0B0FB92E018
:10041C00BB68042B18D1002210210A4801F0A7FB5D
:10042C0000222021074801F0A2FB012240210548AF
:10043C0001F09DFB00228021024801F098FB7AE03C
:10044C0067666666000C0140BB68052B14D101225F
:10045C0010213B4801F08BFB00222021384801F091
:10046C0086FB01224021364801F081FB00228021CD
:10047C00334801F07CFB5EE0BB68062B14D10022F4
:10048C0010212F4801F073FB012220212C4801F090
:10049C006EFB012240212A4801F069FB00228021D9
:1004AC00274801F064FB46E0BB68072B14D10122FE
:1004BC001021234801F05BFB01222021204801F090
:1004CC0056FB012240211E4801F051FB00228021E5
:1004DC001B4801F04CFB2EE0BB68082B14D100220A
:1004EC001021174801F043FB00222021144801F091
:1004FC003EFB00224021124801F039FB01228021F1
:10050C000F4801F034FB16E0BB68092B13D1012214
:10051C0010210B4801F02BFB00222021084801F090
:10052C0026FB00224021064801F021FB01228021FC
:10053C00034801F01CFB00BF1037BD4680BD00BF57
:10054C00000C014080B584B000AF78607B68BF4A76
:10055C0082FB03129210DB17D31AFB607A68BB4B39
:10056C0083FB02139910D317C91A0B469B000B443B
:10057C005B00D31ABB60FB68002B18D100224FF430
:10058C008071B34801F0F3FA00224FF40071B048C7
:10059C0001F0EDFA00224FF48061AD4801F0E7FA6A
:1005AC0000224FF40061AA4801F0E1FAFAE0FB687E
:1005BC00012B18D101224FF48071A54801F0D7FA14
:1005CC0000224FF40071A24801F0D1FA00224FF43E
:1005DC0080619F4801F0CBFA00224FF400619C48E7
:1005EC0001F0C5FADEE0FB68022B18D100224FF4B3
:1005FC008071974801F0BBFA01224FF400719448C6
:10060C0001F0B5FA00224FF48061914801F0AFFA85
:10061C0000224FF400618E4801F0A9FAC2E0FB6899
:10062C00032B18D101224FF48071894801F09FFAF5
:10063C0001224FF40071864801F099FA00224FF420
:10064C008061834801F093FA00224FF400618048E6
:10065C0001F08DFAA6E0FB68042B18D100224FF4B0
:10066C0080717B4801F083FA00224FF400717848C6
:10067C0001F07DFA01224FF48061754801F077FAA0
:10068C0000224FF40061724801F071FA8AE0FB68B5
:10069C00052B18D101224FF480716D4801F067FAD7
:1006AC0000224FF400716A4801F061FA01224FF404
:1006BC008061674801F05BFA00224FF400616448E6
:1006CC0001F055FA6EE0FB68062B18D100224FF4AE
:1006DC0080715F4801F04BFA01224FF400715C48C5
:1006EC0001F045FA01224FF48061594801F03FFABC
:1006FC0000224FF40061564801F039FA52E0FB68D1
:10070C00072B18D101224FF48071514801F02FFAB8
:10071C0001224FF400714E4801F029FA01224FF4E6
:10072C0080614B4801F023FA00224FF400614848E5
:10073C0001F01DFA36E0FB68082B18D100224FF4AB
:10074C008071434801F013FA00224FF400714048C5
:10075C0001F00DFA00224FF480613D4801F007FAD8
:10076C0001224FF400613A4801F001FA1AE0FB68EB
:10077C00092B17D101224FF48071354801F0F7F99C
:10078C0000224FF40071324801F0F1F900224FF4CD
:10079C0080612F4801F0EBF901224FF400612C48E5
:1007AC0001F0E5F9BB68002B18D100224FF4805101
:1007BC00274801F0DCF900224FF40051244801F0E5
:1007CC00D6F900224FF48041214801F0D0F90022E3
:1007DC004FF400411E4801F0CAF9FEE0BB68012B42
:1007EC0018D101224FF48051194801F0C0F90022B0
:1007FC004FF40051164801F0BAF900224FF4804131
:10080C00134801F0B4F900224FF40041104801F0F4
:10081C00AEF9E2E0BB68022B1CD100224FF48051F0
:10082C000B4801F0A4F901224FF40051084801F0E3
:10083C009EF900224FF48041054801F098F90022FE
:10084C004FF40041024801F092F9C6E06766666613
:10085C00000C0140BB68032B18D101224FF48051CE
:10086C00604801F084F901224FF400515D4801F019
:10087C007EF900224FF480415A4801F078F90022A9
:10088C004FF40041574801F072F9A6E0BB68042B05
:10089C0018D100224FF48051524801F068F900221F
:1008AC004FF400514F4801F062F901224FF480419E
:1008BC004C4801F05CF900224FF40041494801F02A
:1008CC0056F98AE0BB68052B18D101224FF48051F0
:1008DC00444801F04CF900224FF40051414801F01A
:1008EC0046F901224FF480413E4801F040F90022C4
:1008FC004FF400413B4801F03AF96EE0BB68062B1F
:10090C0018D100224FF48051364801F030F9012201
:10091C004FF40051334801F02AF901224FF4804181
:10092C00304801F024F900224FF400412D4801F029
:10093C001EF952E0BB68072B18D101224FF48051ED
:10094C00284801F014F901224FF40051254801F018
:10095C000EF901224FF48041224801F008F90022DF
:10096C004FF400411F4801F002F936E0BB68082B38
:10097C0018D100224FF480511A4801F0F8F80022E7
:10098C004FF40051174801F0F2F800224FF4804167
:10099C00144801F0ECF801224FF40041114801F029
:1009AC00E6F81AE0BB68092B17D101224FF48051ED
:1009BC000C4801F0DCF800224FF40051094801F01A
:1009CC00D6F800224FF48041064801F0D0F80122FD
:1009DC004FF40041034801F0CAF800BF1037BD4680
:1009EC0080BD00BF000C014080B582B000AF7860C4
:1009FC007B68012B18D101224FF40061364801F0BD
:100A0C00B6F800224FF48051334801F0B0F80022C0
:100A1C004FF40051304801F0AAF800224FF4804105
:100A2C002D4801F0A4F852E07B68022B18D100226B
:100A3C004FF40061284801F09AF801224FF48051DC
:100A4C00254801F094F800224FF40051224801F09F
:100A5C008EF800224FF480411F4801F088F836E0F0
:100A6C007B68032B18D101224FF400611A4801F066
:100A7C007EF801224FF48051174801F078F80022DB
:100A8C004FF40051144801F072F800224FF48041E9
:100A9C00114801F06CF81AE07B68042B17D1002286
:100AAC004FF400610C4801F062F800224FF48051C1
:100ABC00094801F05CF801224FF40051064801F09E
:100ACC0056F800224FF48041034801F050F800BF63
:100ADC000837BD4680BD00BF0008014090B583B00B
:100AEC0000AF0023FB7178E0FA79FB793F49895C10
:100AFC003F4AD154FB79002B08D1FC7980213D4829
:100B0C0001F01EF803461A46384B1A55FB79012B97
:100B1C0009D1FC794FF48071364801F011F8034685
:100B2C001A46324B1A55FB79022B09D1FC794FF43A
:100B3C000071304801F004F803461A462B4B1A5545
:100B4C00FB792A4AD25CFB792949CB5C9A4241D188
:100B5C00FB79274AD25CFB792749CB5C9A420AD0B5
:100B6C00FA79FB792249895C234AD154FB79224AD0
:100B7C000021D1542EE0FB79204A32F81320013A9F
:100B8C0091B21E4A22F81310FB791C4A32F813302A
:100B9C00002B1FD1FB79184AD35C002B0CD1FB79AD
:100BAC00164A642122F81310FB79154A0121D154FD
:100BBC00FB79144A0121D154FB790F4AD35C012BE8
:100BCC0008D1FB790D4A642122F81310FB790D4AE8
:100BDC000021D154FB790133FB71FB79022B83D9B2
:100BEC0000BF00BF0C37BD4690BD00BF0400002005
:100BFC0008000020000801400C000020100000201C
:100C0C00000000205000002080B485B000AF0346E7
:100C1C00FB71FB79022B01D900230DE0FB79094A0A
:100C2C00D35CFB73FB79074A0121D154FB7B002B6E
:100C3C000CBF01230023DBB218461437BD4680BC21
:100C4C00704700BF0000002080B500AF00F08CFCA6
:100C5C0000F00CF800F092F800F044F8024801F0B3
:100C6C00CDFB00F005F9FCE75400002080B590B0F6
:100C7C0000AF07F1180328220021184601F07AFF73
:100C8C003B1D00221A605A609A60DA601A610223D6
:100C9C00BB610123BB621023FB6200237B6307F162
:100CAC001803184600F07CFF0346002B01D000F01F
:100CBC00DAF80F237B600023BB600023FB6000236A
:100CCC003B6100237B613B1D0021184601F0EAF9D2
:100CDC000346002B01D000F0C6F800BF4037BD46DC
:100CEC0080BD000080B586B000AF07F1080300227C
:100CFC001A605A609A60DA603B4600221A605A60A9
:100D0C001D4B4FF080421A601B4B41F63F725A60EC
:100D1C00194B00229A60184B0922DA60164B0022FC
:100D2C001A61154B00229A61134801F017FB034618
:100D3C00002B01D000F097F84FF48053BB6007F103
:100D4C00080319460C4801F0ADFC0346002B01D0FA
:100D5C0000F089F800233B6000237B603B4619467A
:100D6C00054801F079FE0346002B01D000F07BF81A
:100D7C0000BF1837BD4680BD5400002080B586B03A
:100D8C0000AF07F1080300221A605A609A60DA601B
:100D9C00294B9B69284A43F004039361264B9B69BA
:100DAC0003F004037B607B68234B9B69224A43F06E
:100DBC0008039361204B9B6903F008033B603B687D
:100DCC00002247F67E011D4800F0D1FE00224FF6AE
:100DDC00FF711B4800F0CBFE47F67E03BB6001237E
:100DEC00FB6000233B6102237B6107F1080319467A
:100DFC00124800F029FD4FF46073BB600023FB60C8
:100E0C0000233B6107F1080319460C4800F01CFD58
:100E1C004FF6FF73BB600123FB6000233B61022391
:100E2C007B6107F108031946054800F00DFD00BF72
:100E3C001837BD4680BD00BF0010024000080140BD
:100E4C00000C014080B582B000AF78607B681B68F5
:100E5C00B3F1804F01D1FFF741FE00F01DFB00BF45
:100E6C000837BD4680BD80B400AF72B600BFFEE748
:100E7C0080B500AF964B1B680E2B00F22A8201A2A4
:100E8C0052F823F0CD0E0008DF120008DF12000824
:100E9C00DF120008DF120008DF120008DF12000862
:100EAC00DF120008DF120008DF120008DF12000852
:100EBC00F10E0008E70F0008F5100008EB11000810
:100ECC00844B0F221A60844B0A221A60804B0B222F
:100EDC001A604FF47A7000F091FA42F2107000F040
:100EEC00A7FAFFE1012202217C4800F040FE00221B
:100EFC0004217A4800F03BFE00220821774800F0DC
:100F0C0036FE00221021754800F031FE002220210F
:100F1C00724800F02CFE01224021704800F027FEA0
:100F2C006C4B1B681846FFF70BF96B4B1B6818468C
:100F3C00FFF708FB0120FFF757FD694B1B68012BDE
:100F4C000DD14FF47A7000F059FA624B1B68013BDB
:100F5C00604A1360604B1B68013B5F4A1360614B36
:100F6C001B68012B10D15A4B0C221A60594B0522CD
:100F7C001A60594B05221A604FF47A7000F03EFA51
:100F8C0041F2883000F054FA0020FFF73DFE034692
:100F9C00002B00F0A0814E4B14221A60002202217B
:100FAC004E4800F0E4FD002210214C4800F0DFFD1B
:100FBC00484B0A221A60484B00221A604FF47A7090
:100FCC0000F01CFA42F2107000F032FAFA2000F035
:100FDC0049FA0220FFF708FD7DE1012202213F487A
:100FEC0000F0C5FD002204213C4800F0C0FD0022A9
:100FFC0008213A4800F0BBFD00221021374800F0D0
:10100C00B6FD01222021354800F0B1FD002240211F
:10101C00324800F0ACFD2F4B1B681846FFF790F8D8
:10102C002D4B1B681846FFF78DFA0120FFF7DCFCEF
:10103C002B4B1B68012B0DD14FF47A7000F0DEF9AD
:10104C00244B1B68013B234A1360234B1B68013B59
:10105C00214A1360234B1B68012B10D11C4B0D2212
:10106C001A601C4B0A221A601B4B0F221A604FF499
:10107C007A7000F0C3F942F2107000F0D9F9002038
:10108C00FFF7C2FD0346002B00F02781104B142202
:10109C001A6000220221114800F069FD0022102183
:1010AC000E4800F064FD0B4B0A221A600A4B00221A
:1010BC001A604FF47A7000F0A1F942F2107000F04F
:1010CC00B7F9FA2000F0CEF90220FFF78DFC04E10D
:1010DC004C00002044000020480000200008014083
:1010EC00A8000020AC000020002202217E4800F065
:1010FC003EFD002204217C4800F039FD012208212C
:10110C00794800F034FD01221021774800F02FFDC2
:10111C0000222021744800F02AFD00224021724850
:10112C0000F025FD714B1B681846FFF709F8704B52
:10113C001B681846FFF706FA0120FFF755FC6D4BAC
:10114C001B68012B0DD14FF47A7000F057F9674BE7
:10115C001B68013B654A1360654B1B68013B644A85
:10116C001360654B1B68012B10D1644B0E221A6067
:10117C005E4B05221A605E4B05221A604FF47A70A2
:10118C0000F03CF941F2883000F052F90020FFF7F2
:10119C003BFD0346002B00F0A280584B14221A6032
:1011AC0000220221504800F0E2FC002210214E489F
:1011BC0000F0DDFC4D4B0A221A604D4B00221A60E8
:1011CC004FF47A7000F01AF942F2107000F030F916
:1011DC00FA2000F047F90220FFF706FC7FE000221E
:1011EC000221414800F0C3FC012204213E4800F0DA
:1011FC00BEFC002208213C4800F0B9FC0122102161
:10120C00394800F0B4FC00222021374800F0AFFC34
:10121C0000224021344800F0AAFC344B1B681846CD
:10122C00FEF78EFF324B1B681846FFF78BF9012037
:10123C00FFF7DAFB2F4B1B68012B0DD14FF47A70A3
:10124C0000F0DCF8294B1B68013B284A1360284B43
:10125C001B68013B264A1360274B1B68012B10D1DE
:10126C00264B0B221A60214B0F221A60204B0A22AC
:10127C001A604FF47A7000F0C1F842F2107000F06E
:10128C00D7F80020FFF7C0FC0346002B29D01B4BDE
:10129C0014221A6000220221134800F068FC00227C
:1012AC001021114800F063FC104B0A221A60104BFD
:1012BC0000221A604FF47A7000F0A0F842F210701D
:1012CC0000F0B6F8FA2000F0CDF80220FFF78CFB06
:1012DC0007E000BF06E000BF04E000BF02E000BF73
:1012EC0000E000BF00BF80BD0008014044000020AA
:1012FC0048000020A8000020AC0000204C0000207A
:10130C0080B483B000AF0E4B9B690D4A43F00103D0
:10131C0093610B4B9B6903F001037B607B68084B6B
:10132C00DB69074A43F08053D361054BDB6903F05B
:10133C0080533B603B6800BF0C37BD4680BC704798
:10134C000010024080B584B000AF78607B681B68E9
:10135C00B3F1804F13D10C4BDB690B4A43F0010303
:10136C00D361094BDB6903F00103FB60FB680022CE
:10137C0000211C2000F031FA1C2000F04AFA00BFBA
:10138C001037BD4680BD00BF0010024080B400AFD6
:10139C00FEE780B400AFFEE780B400AFFEE780B498
:1013AC0000AFFEE780B400AFFEE780B400AF00BF33
:1013BC00BD4680BC704780B400AF00BFBD4680BC4A
:1013CC00704780B400AF00BFBD4680BC704780B58D
:1013DC0000AF00F00FF900BF80BD000080B500AF7A
:1013EC00024801F057F800BF80BD00BF5400002038
:1013FC0080B400AF00BFBD4680BC704780B483B0E2
:10140C0000AF7860074B1B687A6892FBF3F3064ACF
:10141C001360064B00221A6000BF0C37BD4680BC1F
:10142C00704700BF1C0000209C000020A80000207A
:10143C0080B483B000AF7860074B1B687A6892FB6E
:10144C00F3F3064A1360064B00221A6000BF0C37F8
:10145C00BD4680BC704700BF1C000020A0000020CF
:10146C00AC00002080B483B000AF7860074B1B68E1
:10147C007A6892FBF3F3064A1360064B00221A605B
:10148C0000BF0C37BD4680BC704700BF1C0000205D
:10149C00A0000020AC00002080B400AF194B1B68EA
:1014AC00002B0BDD174B1B68013B164A1360154BC9
:1014BC001B68002B02D1144B01221A60134B1B68C2
:1014CC00002B0BDD114B1B68013B104A13600F4BBB
:1014DC001B68002B02D10E4B01221A600D4B1B68AE
:1014EC00002B0BDD0B4B1B68013B0A4A1360094BAD
:1014FC001B68002B02D1084B01221A6000BFBD46AD
:10150C0080BC70479C000020A8000020A000002098
:10151C00AC000020A4000020B0000020FFF768FF02
:10152C000B480C490C4A002302E0D458C450043335
:10153C00C4188C42F9D3094A094C002301E013600A
:10154C000432A242FBD301F0F1FAFFF77DFB7047A6
:10155C000000002028000020D42B000828000020C8
:10156C00B8000020FEE7000080B500AF084B1B68F8
:10157C00074A43F010031360032000F023F90F20F7
:10158C0000F008F8FFF7BCFE0023184680BD00BF32
:10159C000020024080B582B000AF7860124B1A6810
:1015AC00124B1B7819464FF47A73B3FBF1F3B2FB71
:1015BC00F3F3184600F03BF90346002B01D001234E
:1015CC000EE07B680F2B0AD8002279684FF0FF30B1
:1015DC0000F003F9064A7B681360002300E0012346
:1015EC0018460837BD4680BD180000202400002096
:1015FC002000002080B400AF054B1B781A46054B29
:10160C001B681344034A136000BFBD4680BC70477F
:10161C0024000020B400002080B400AF024B1B68F3
:10162C001846BD4680BC7047B400002080B485B01D
:10163C0000AF78607B6803F00703FB600C4BDB6842
:10164C00BB60BA684FF6FF031340BB60FB681A021D
:10165C00BB68134343F0BF6343F40033BB60044ADD
:10166C00BB68D36000BF1437BD4680BC704700BF59
:10167C0000ED00E080B400AF044BDB681B0A03F004
:10168C0007031846BD4680BC704700BF00ED00E064
:10169C0080B483B000AF0346FB7197F90730002B81
:1016AC000BDBFB7903F01F02064997F907305B0946
:1016BC00012000FA02F241F8232000BF0C37BD468E
:1016CC0080BC704700E100E080B483B000AF0346FB
:1016DC003960FB7197F90730002B0ADB3B68DAB2F3
:1016EC000C4997F907301201D2B20B4483F800234E
:1016FC000AE03B68DAB20849FB7903F00F03043BBC
:10170C001201D2B20B441A7600BF0C37BD4680BC16
:10171C00704700BF00E100E000ED00E080B489B04C
:10172C0000AFF860B9607A60FB6803F00703FB61F7
:10173C00FB69C3F10703042B28BF0423BB61FB69BE
:10174C000433062B02D9FB69033B00E000237B61C9
:10175C004FF0FF32BB6902FA03F3DA43BB681A405D
:10176C007B699A404FF0FF317B6901FA03F3D9434F
:10177C007B680B40134318462437BD4680BC70472A
:10178C0080B582B000AF78607B68013BB3F1807F9D
:10179C0001D301230FE00A4A7B68013B53600F2100
:1017AC004FF0FF30FFF790FF054B00229A60044B7F
:1017BC0007221A60002318460837BD4680BD00BFBB
:1017CC0010E000E080B582B000AF78607868FFF779
:1017DC002DFF00BF0837BD4680BD80B586B000AF79
:1017EC000346B9607A60FB7300237B61FFF742FF0D
:1017FC0078617A68B9687869FFF790FF024697F9C3
:10180C000F3011461846FFF75FFF00BF1837BD4673
:10181C0080BD80B582B000AF0346FB7197F90730ED
:10182C001846FFF735FF00BF0837BD4680BD80B5B1
:10183C0082B000AF78607868FFF7A2FF03461846C5
:10184C000837BD4680BD000080B48BB000AF786017
:10185C00396000237B6200233B6261E101227B6AD9
:10186C0002FA03F3FB613B681B68FA691340BB6126
:10187C00BA69FB699A4240F050813B685B68974AB1
:10188C0093425ED0954A934275D8954A934258D06C
:10189C00934A93426FD8934A934252D0914A9342BF
:1018AC0069D8914A93424CD08F4A934263D88F4A5D
:1018BC00934246D08D4A93425DD8122B2AD8122BD4
:1018CC0059D801A252F823F04F1900082919000821
:1018DC003B1900087D1900088319000883190008BA
:1018EC00831900088319000883190008831900085C
:1018FC00831900088319000883190008831900084C
:10190C00831900088319000883190008311900088D
:10191C0045190008764A934213D02CE03B68DB68EB
:10192C003B6229E03B68DB6804333B6224E03B68A4
:10193C00DB6808333B621FE03B68DB680C333B62BF
:10194C001AE03B689B68002B02D104233B6213E036
:10195C003B689B68012B05D108233B627B68FA69C5
:10196C001A6109E008233B627B68FA695A6103E05B
:10197C0000233B6200E000BFBB69FF2B01D87B68F2
:10198C0001E07B6804337B61BB69FF2B02D87B6A67
:10199C009B0002E07B6A083B9B003B617B691A68F9
:1019AC000F213B6901FA03F3DB431A40396A3B69A7
:1019BC0001FA03F31A437B691A603B685B6803F016
:1019CC008053002B00F0A9804A4B9B69494A43F095
:1019DC0001039361474B9B6903F00103BB60BB6838
:1019EC00454A7B6A9B08023352F82330FB607B6AC2
:1019FC0003F003039B000F2202FA03F3DB43FA68A4
:101A0C001340FB607B683D4A93420DD07B683C4A97
:101A1C00934207D07B683B4A934201D1022304E0F6
:101A2C00032302E0012300E000237A6A02F00302A0
:101A3C0092009340FA681343FB602F497B6A9B0822
:101A4C000233FA6841F823203B685B6803F4801387
:101A5C00002B06D02C4B9A682B49BB6913438B6027
:101A6C0006E0294B9A68BB69DB43274913408B601E
:101A7C003B685B6803F40013002B06D0224BDA683A
:101A8C002149BB691343CB6006E01F4BDA68BB6985
:101A9C00DB431D491340CB603B685B6803F40033A8
:101AAC00002B06D0184B5A681749BB6913434B607F
:101ABC0006E0154B5A68BB69DB43134913404B6076
:101ACC003B685B6803F48033002B1FD00E4B1A6805
:101ADC000D49BB6913430B601FE000BF00003210BF
:101AEC000000311000002210000021100000121024
:101AFC0000001110001002400000014000080140DD
:101B0C00000C014000100140000401400B4B1A680E
:101B1C00BB69DB43094913400B607B6A01337B6271
:101B2C003B681A687B6A22FA03F3002B7FF496AEAB
:101B3C0000BF00BF2C37BD4680BC7047000401407D
:101B4C0080B485B000AF78600B467B807B689A6868
:101B5C007B881340002B02D00123FB7301E0002390
:101B6C00FB73FB7B18461437BD4680BC704780B4B2
:101B7C0083B000AF78600B467B8013467B707B781C
:101B8C00002B03D07A887B681A6103E07B881A04E7
:101B9C007B681A6100BF0C37BD4680BC70470000E3
:101BAC0080B586B000AF78607B68002B01D1012333
:101BBC0072E27B681B6803F00103002B00F0878046
:101BCC00924B5B6803F00C03042B0CD08F4B5B68BF
:101BDC0003F00C03082B12D18C4B5B6803F480339D
:101BEC00B3F5803F0BD1894B1B6803F40033002BFA
:101BFC006CD07B685B68002B68D101234CE27B685E
:101C0C005B68B3F5803F06D1804B1B687F4A43F479
:101C1C00803313602EE07B685B68002B0CD17B4B10
:101C2C001B687A4A23F480331360784B1B68774A1D
:101C3C0023F4802313601DE07B685B68B3F5A02F51
:101C4C000CD1724B1B68714A43F4802313606F4BA9
:101C5C001B686E4A43F4803313600BE06B4B1B68BC
:101C6C006A4A23F480331360684B1B68674A23F479
:101C7C00802313607B685B68002B13D0FFF7CCFCD0
:101C8C00386108E0FFF7C8FC02463B69D31A642BA5
:101C9C0001D9032300E25D4B1B6803F40033002BD6
:101CAC00F0D014E0FFF7B8FC386108E0FFF7B4FCA3
:101CBC0002463B69D31A642B01D90323ECE1534B45
:101CCC001B6803F40033002BF0D100E000BF7B68ED
:101CDC001B6803F00203002B63D04C4B5B6803F0D2
:101CEC000C03002B0BD0494B5B6803F00C03082B47
:101CFC001CD1464B5B6803F48033002B16D1434B4D
:101D0C001B6803F00203002B05D07B681B69012BB9
:101D1C0001D00123C0E13D4B1B6823F0F8027B6826
:101D2C005B69DB00394913430B603AE07B681B6944
:101D3C00002B20D0364B01221A60FFF76DFC386166
:101D4C0008E0FFF769FC02463B69D31A022B01D964
:101D5C000323A1E12D4B1B6803F00203002BF0D0F1
:101D6C002A4B1B6823F0F8027B685B69DB00274970
:101D7C0013430B6015E0264B00221A60FFF74CFC56
:101D8C00386108E0FFF748FC02463B69D31A022B86
:101D9C0001D9032380E11D4B1B6803F00203002BC8
:101DAC00F0D17B681B6803F00803002B3AD07B68EA
:101DBC009B69002B19D0174B01221A60FFF72CFCE2
:101DCC00386108E0FFF728FC02463B69D31A022B66
:101DDC0001D9032360E10D4B5B6A03F00203002B76
:101DEC00F0D0012000F09CFA1CE00A4B00221A6093
:101DFC00FFF712FC38610FE0FFF70EFC02463B695F
:101E0C00D31A022B08D9032346E100BF001002406D
:101E1C000000424280044242924B5B6A03F0020390
:101E2C00002BE9D17B681B6803F00403002B00F046
:101E3C00A6800023FB758B4BDB6903F08053002BD2
:101E4C000DD1884BDB69874A43F08053D361854BB6
:101E5C00DB6903F08053BB60BB680123FB75824BCD
:101E6C001B6803F48073002B18D17F4B1B687E4AD0
:101E7C0043F480731360FFF7CFFB386108E0FFF782
:101E8C00CBFB02463B69D31A642B01D9032303E134
:101E9C00754B1B6803F48073002BF0D07B68DB68F8
:101EAC00012B06D16F4B1B6A6E4A43F00103136280
:101EBC002DE07B68DB68002B0CD16A4B1B6A694AEE
:101ECC0023F001031362674B1B6A664A23F0040379
:101EDC0013621CE07B68DB68052B0CD1614B1B6A21
:101EEC00604A43F0040313625E4B1B6A5D4A43F085
:101EFC00010313620BE05B4B1B6A5A4A23F001038C
:101F0C001362584B1B6A574A23F0040313627B6815
:101F1C00DB68002B15D0FFF77FFB38610AE0FFF779
:101F2C007BFB02463B69D31A41F28832934201D9BA
:101F3C000323B1E04B4B1B6A03F00203002BEED0E2
:101F4C0014E0FFF769FB38610AE0FFF765FB024616
:101F5C003B69D31A41F28832934201D903239BE0A7
:101F6C00404B1B6A03F00203002BEED1FB7D012BCF
:101F7C0005D13C4BDB693B4A23F08053D3617B6832
:101F8C00DB69002B00F08780364B5B6803F00C0399
:101F9C00082B61D07B68DB69022B46D1334B0022C6
:101FAC001A60FFF739FB386108E0FFF735FB024692
:101FBC003B69D31A022B01D903236DE0294B1B6813
:101FCC0003F00073002BF0D17B681B6AB3F5803FE4
:101FDC0008D1244B5B6823F400327B689B68214951
:101FEC0013434B601F4B5B6823F474127B68196AB4
:101FFC007B685B6A0B431B4913434B601B4B0122F1
:10200C001A60FFF709FB386108E0FFF705FB024691
:10201C003B69D31A022B01D903233DE0114B1B68FA
:10202C0003F00073002BF0D035E0104B00221A6047
:10203C00FFF7F2FA386108E0FFF7EEFA02463B6967
:10204C00D31A022B01D9032326E0064B1B6803F09D
:10205C000073002BF0D11EE07B68DB69012B07D1EC
:10206C00012319E000100240007000406000424261
:10207C000B4B5B68FB60FB6803F480327B681B6A6C
:10208C009A4206D1FB6803F470127B685B6A9A4231
:10209C0001D0012300E0002318461837BD4680BD4F
:1020AC000010024080B584B000AF786039607B6866
:1020BC00002B01D10123D0E06A4B1B6803F007030E
:1020CC003A689A4210D9674B1B6823F0070265499E
:1020DC003B6813430B60634B1B6803F007033A68C0
:1020EC009A4201D00123B8E07B681B6803F002031D
:1020FC00002B20D07B681B6803F00403002B05D059
:10210C00594B5B68584A43F4E06353607B681B6827
:10211C0003F00803002B05D0534B5B68524A43F481
:10212C0060535360504B5B6823F0F0027B689B68F4
:10213C004D4913434B607B681B6803F00103002B74
:10214C0040D07B685B68012B07D1474B1B6803F4BD
:10215C000033002B15D101237FE07B685B68022BD9
:10216C0007D1414B1B6803F00073002B09D10123ED
:10217C0073E03D4B1B6803F00203002B01D10123DC
:10218C006BE0394B5B6823F003027B685B68364974
:10219C0013434B60FFF740FAF8600AE0FFF73CFA94
:1021AC000246FB68D31A41F28832934201D90323C9
:1021BC0053E02D4B5B6803F00C027B685B689B0063
:1021CC009A42EBD1274B1B6803F007033A689A42FB
:1021DC0010D2244B1B6823F0070222493B6813439F
:1021EC000B60204B1B6803F007033A689A4201D03E
:1021FC00012332E07B681B6803F00403002B08D03A
:10220C00194B5B6823F4E0627B68DB681649134367
:10221C004B607B681B6803F00803002B09D0124B42
:10222C005B6823F460527B681B69DB000E49134327
:10223C004B6000F021F802460B4B5B681B0903F066
:10224C000F030A49CB5C22FA03F3094A1360094BCA
:10225C001B681846FFF79EF9002318461037BD4639
:10226C0080BD00BF0020024000100240A82B0008D7
:10227C00180000202000002080B487B000AF00239D
:10228C00FB600023BB6000237B6100237B60002389
:10229C003B611E4B5B68FB60FB6803F00C03042B7B
:1022AC0002D0082B03D027E0194B3B6127E0FB68D9
:1022BC009B0C03F00F03174AD35C7B60FB6803F4A1
:1022CC008033002B10D0114B5B685B0C03F00103C7
:1022DC00114AD35CBB607B680D4A03FB02F2BB68FE
:1022EC00B2FBF3F37B6104E07B680C4A02FB03F363
:1022FC007B617B693B6102E0054B3B6100BF3B6945
:10230C0018461C37BD4680BC704700BF0010024009
:10231C0000127A00B82B0008C82B000800093D00F9
:10232C0080B485B000AF78600A4B1B680A4AA2FBE8
:10233C0003235B0A7A6802FB03F3FB6000BFFB68B4
:10234C005A1EFA60002BF9D100BF00BF1437BD46EE
:10235C0080BC704718000020D34D621080B582B04D
:10236C0000AF78607B68002B01D1012341E07B68D2
:10237C0093F83D30DBB2002B06D17B68002283F84A
:10238C003C207868FEF7DEFF7B68022283F83D2054
:10239C007B681A687B6804331946104600F06EFAA5
:1023AC007B68012283F846207B68012283F83E205B
:1023BC007B68012283F83F207B68012283F8402050
:1023CC007B68012283F841207B68012283F842203C
:1023DC007B68012283F843207B68012283F8442028
:1023EC007B68012283F845207B68012283F83D201D
:1023FC00002318460837BD4680BD000080B485B068
:10240C0000AF78607B6893F83D30DBB2012B01D0D4
:10241C00012335E07B68022283F83D207B681B6832
:10242C00DA687B681B6842F00102DA607B681B6823
:10243C00164A934209D07B681B68B3F1804F04D0D5
:10244C007B681B68124A934211D17B681B689B689E
:10245C0003F00703FB60FB68062B10D07B681B683E
:10246C001A687B681B6842F001021A6007E07B68FF
:10247C001B681A687B681B6842F001021A60002313
:10248C0018461437BD4680BC704700BF002C014075
:10249C000004004080B582B000AF78607B681B6898
:1024AC001B6903F00203022B22D17B681B68DB68DB
:1024BC0003F00203022B1BD17B681B686FF0020236
:1024CC001A617B6801221A777B681B689B6903F091
:1024DC000303002B03D0786800F0B4F905E07868AA
:1024EC0000F0A7F9786800F0B6F97B6800221A773B
:1024FC007B681B681B6903F00403042B22D17B68E7
:10250C001B68DB6803F00403042B1BD17B681B687E
:10251C006FF004021A617B6802221A777B681B68D1
:10252C009B6903F44073002B03D0786800F08AF9A0
:10253C0005E0786800F07DF9786800F08CF97B682C
:10254C0000221A777B681B681B6903F00803082BB1
:10255C0022D17B681B68DB6803F00803082B1BD1B6
:10256C007B681B686FF008021A617B6804221A777B
:10257C007B681B68DB6903F00303002B03D07868CE
:10258C0000F060F905E0786800F053F9786800F025
:10259C0062F97B6800221A777B681B681B6903F061
:1025AC001003102B22D17B681B68DB6803F010032F
:1025BC00102B1BD17B681B686FF010021A617B68B3
:1025CC0008221A777B681B68DB6903F44073002BC5
:1025DC0003D0786800F036F905E0786800F029F946
:1025EC00786800F038F97B6800221A777B681B68E2
:1025FC001B6903F00103012B0ED17B681B68DB68A0
:10260C0003F00103012B07D17B681B686FF00102FB
:10261C001A617868FEF716FC7B681B681B6903F06F
:10262C008003802B0ED17B681B68DB6803F0800372
:10263C00802B07D17B681B686FF080021A61786869
:10264C0000F06BFA7B681B681B6903F04003402B9E
:10265C000ED17B681B68DB6803F04003402B07D16D
:10266C007B681B686FF040021A61786800F0FCF818
:10267C007B681B681B6903F02003202B0ED17B6841
:10268C001B68DB6803F02003202B07D17B681B68D9
:10269C006FF020021A61786800F036FA00BF083734
:1026AC00BD4680BD80B584B000AF78603960002332
:1026BC00FB737B6893F83C30012B01D10223B4E00F
:1026CC007B68012283F83C207B68022283F83D2042
:1026DC007B681B689B68BB60BB6823F07703BB609F
:1026EC00BB6823F47F43BB607B681B68BA689A6045
:1026FC003B681B68B3F5005F3ED0B3F5005F00F29A
:10270C008780B3F5805F00F08680B3F5805F7FD85B
:10271C00702B1AD0702B7BD8602B50D0602B77D8B5
:10272C00502B3CD0502B73D8402B58D0402B6FD80B
:10273C00302B64D0302B6BD8202B60D0202B67D85B
:10274C00002B5CD0102B5AD062E07B6818683B6879
:10275C0099683B685A683B68DB6800F05EF97B68F7
:10276C001B689B68BB60BB6843F07703BB607B68EE
:10277C001B68BA689A604FE07B6818683B68996878
:10278C003B685A683B68DB6800F047F97B681B685C
:10279C009A687B681B6842F480429A603CE07B68D4
:1027AC0018683B6859683B68DB681A4600F0BEF84D
:1027BC007B681B685021184600F015F92CE07B68EB
:1027CC0018683B6859683B68DB681A4600F0DCF80F
:1027DC007B681B686021184600F005F91CE07B68DB
:1027EC0018683B6859683B68DB681A4600F09EF82D
:1027FC007B681B684021184600F0F5F80CE07B68FC
:10280C001A683B681B681946104600F0ECF803E0A8
:10281C000123FB7300E000BF7B68012283F83D209D
:10282C007B68002283F83C20FB7B18461037BD46A2
:10283C0080BD80B483B000AF786000BF0C37BD465C
:10284C0080BC704780B483B000AF786000BF0C3799
:10285C00BD4680BC704780B483B000AF786000BFC9
:10286C000C37BD4680BC704780B483B000AF786035
:10287C0000BF0C37BD4680BC7047000080B485B0EB
:10288C0000AF786039607B681B68FB607B68254A09
:10289C00934207D07B68B3F1804F03D07B68224A08
:1028AC00934208D1FB6823F07003FB603B685B68C4
:1028BC00FA681343FB607B681A4A934207D07B6823
:1028CC00B3F1804F03D07B68174A934208D1FB6861
:1028DC0023F44073FB603B68DB68FA681343FB60CE
:1028EC00FB6823F080023B685B691343FB607B68E9
:1028FC00FA681A603B689A687B68DA623B681A6807
:10290C007B689A627B68074A934203D13B681A69D9
:10291C007B681A637B6801225A6100BF1437BD467D
:10292C0080BC7047002C01400004004080B487B08C
:10293C0000AFF860B9607A60FB681B6A7B61FB686A
:10294C001B6A23F00102FB681A62FB689B693B61FE
:10295C003B6923F0F0033B617B681B013A6913432D
:10296C003B617B6923F00A037B617A69BB68134383
:10297C007B61FB683A699A61FB687A691A6200BFED
:10298C001C37BD4680BC704780B487B000AFF86080
:10299C00B9607A60FB681B6A7B61FB681B6A23F079
:1029AC001002FB681A62FB689B693B613B6923F46C
:1029BC0070433B617B681B033A6913433B617B6942
:1029CC0023F0A0037B61BB681B017A6913437B6115
:1029DC00FB683A699A61FB687A691A6200BF1C3716
:1029EC00BD4680BC704780B485B000AF786039605C
:1029FC007B689B68FB60FB6823F07003FB603A68A4
:102A0C00FB68134343F00703FB607B68FA689A602A
:102A1C0000BF1437BD4680BC704780B487B000AF90
:102A2C00F860B9607A603B60FB689B687B617B698E
:102A3C0023F47F437B613B681A027B681A43BB68B3
:102A4C0013437A6913437B61FB687A699A6000BF10
:102A5C001C37BD4680BC704780B485B000AF786031
:102A6C0039607B6893F83C30012B01D1022341E0A3
:102A7C007B68012283F83C207B68022283F83D208E
:102A8C007B681B685B68FB607B681B689B68BB6032
:102A9C00FB6823F07003FB603B681B68FA68134308
:102AAC00FB607B681B68FA685A607B681B68144A79
:102ABC00934209D07B681B68B3F1804F04D07B68CC
:102ACC001B68104A93420CD1BB6823F08003BB6097
:102ADC003B685B68BA681343BB607B681B68BA6869
:102AEC009A607B68012283F83D207B68002283F882
:102AFC003C20002318461437BD4680BC704700BFED
:102B0C00002C01400004004080B483B000AF78601A
:102B1C0000BF0C37BD4680BC704780B483B000AF9B
:102B2C00786000BF0C37BD4680BC704770B500267E
:102B3C000C4D0D4C641BA410A64209D100F022F8D8
:102B4C0000260A4D0A4C641BA410A64205D170BD88
:102B5C0055F8043B98470136EEE755F8043B984787
:102B6C000136F2E7CC2B0008CC2B0008CC2B00084C
:102B7C00D02B000803460244934200D1704703F85F
:102B8C00011BF9E7F8B500BFF8BC08BC9E467047BE
:0C2B9C00F8B500BFF8BC08BC9E467047AE
:102BA80000000000000000000102030406070809F5
:102BB80002030405060708090A0B0C0D0E0F101076
:042BC8000102000006
:042BCC0031010008CB
:042BD0000D010008EB
:102BD40001010100010101000101010001010100E5
:102BE40064006400640000000024F4000A00000093
:082BF4001000000001000000C8
:0400000508001529B1
:00000001FF
